{"abi":[{"type":"constructor","inputs":[{"name":"_desc","type":"string","internalType":"string"}],"stateMutability":"nonpayable"},{"type":"function","name":"addPriceRound","inputs":[{"name":"timestamp","type":"uint256","internalType":"uint256"},{"name":"price","type":"int256","internalType":"int256"}],"outputs":[],"stateMutability":"nonpayable"},{"type":"function","name":"decimals","inputs":[],"outputs":[{"name":"","type":"uint8","internalType":"uint8"}],"stateMutability":"pure"},{"type":"function","name":"description","inputs":[],"outputs":[{"name":"","type":"string","internalType":"string"}],"stateMutability":"view"},{"type":"function","name":"getRoundData","inputs":[{"name":"_roundId","type":"uint80","internalType":"uint80"}],"outputs":[{"name":"roundId","type":"uint80","internalType":"uint80"},{"name":"answer","type":"int256","internalType":"int256"},{"name":"","type":"uint256","internalType":"uint256"},{"name":"updatedAt","type":"uint256","internalType":"uint256"},{"name":"","type":"uint80","internalType":"uint80"}],"stateMutability":"view"},{"type":"function","name":"latestRoundData","inputs":[],"outputs":[{"name":"roundId","type":"uint80","internalType":"uint80"},{"name":"answer","type":"int256","internalType":"int256"},{"name":"","type":"uint256","internalType":"uint256"},{"name":"updatedAt","type":"uint256","internalType":"uint256"},{"name":"","type":"uint80","internalType":"uint80"}],"stateMutability":"view"},{"type":"function","name":"setPrice","inputs":[{"name":"_price","type":"int256","internalType":"int256"}],"outputs":[],"stateMutability":"nonpayable"},{"type":"function","name":"version","inputs":[],"outputs":[{"name":"","type":"uint256","internalType":"uint256"}],"stateMutability":"view"}],"bytecode":{"object":"0x6080604052346101f5576106ac80380380610019816101fa565b928339810190602080828403126101f55781516001600160401b03928382116101f5570192601f908082860112156101f55784518481116101cb57601f1995610067828501881686016101fa565b928284528583830101116101f557849060005b8381106101e15750506000918301015280519384116101cb57600054926001938481811c911680156101c1575b828210146101ab57838111610165575b50809285116001146101005750839450908392916000946100f5575b50501b916000199060031b1c1916176000555b60405161048c90816102208239f35b0151925038806100d3565b9294849081166000805284600020946000905b8883831061014b5750505010610132575b505050811b016000556100e6565b015160001960f88460031b161c19169055388080610124565b858701518855909601959485019487935090810190610113565b60008052816000208480880160051c8201928489106101a2575b0160051c019085905b8281106101965750506100b7565b60008155018590610188565b9250819261017f565b634e487b7160e01b600052602260045260246000fd5b90607f16906100a7565b634e487b7160e01b600052604160045260246000fd5b81810183015185820184015286920161007a565b600080fd5b6040519190601f01601f191682016001600160401b038111838210176101cb5760405256fe60806040908082526004908136101561001757600080fd5b600090813560e01c908163313ce567146103685750806354fd4d501461034c57806359d9d6961461031a5780637284e416146101ba5780639a6fc8f51461017f578063f7a308061461010c5763feaf968c1461007257600080fd5b346101095780600319360112610109576001546000198101929083116100f6578369ffffffffffffffffffff84166100f260016100ae836103b5565b500154926100bb836103b5565b5054905193849384608091949360009369ffffffffffffffffffff60a0840197168352602083015283604083015260608201520152565b0390f35b634e487b7160e01b825260119052602490fd5b80fd5b50829034610109576020366003190112610109575b60018054801561015d576000190190610139826103b5565b61014b57818185809355015555610121565b634e487b7160e01b8452838652602484fd5b8261017c8686519061016e82610383565b428252356020820152610405565b80f35b5090346101b65760203660031901126101b657359069ffffffffffffffffffff8216820361010957506100f260016100ae836103b5565b5080fd5b509134610316578260031936011261031657805183805460019581871c87831697881561030c575b6020938483108a146102f957848798999a84895291826000146102dd57505060011461028a575b5050601f801995869203011683019583871067ffffffffffffffff881117610277575085929391838652818452845191828186015281955b83871061025f5750508394508582601f949501015201168101030190f35b86810182015189880189015295810195889550610241565b634e487b7160e01b835260419052602482fd5b8480528492507f290decd9548b62a8d60345a988386fc84ba6bc95484008f6362f93160ef3e5635b8284106102c757505050830181013880610209565b80548885018601528796509284019281016102b2565b925093505060ff191682860152151560051b8401013880610209565b634e487b7160e01b865260228952602486fd5b90607f16906101e2565b8280fd5b5091903461031657816003193601126103165761017c91519061033c82610383565b3581526024356020820152610405565b5082346101b657816003193601126101b6576020905160018152f35b9050346101b657816003193601126101b65780600860209252f35b6040810190811067ffffffffffffffff82111761039f57604052565b634e487b7160e01b600052604160045260246000fd5b6001548110156103ef57600160005260011b7fb10e2d527612073b26eecdfd717e6a320cf44b4afac2b0732d9fcbe2b7fa0cf60190600090565b634e487b7160e01b600052603260045260246000fd5b6001546801000000000000000081101561039f5780600161042992016001556103b5565b919091610440576020816001925184550151910155565b634e487b7160e01b600052600060045260246000fdfea26469706673582212201d3a22a3f70917ee25be750ea07cd5005fe48f560446984486f7ad288aa8b16464736f6c63430008110033","linkReferences":{}},"methodIdentifiers":{"addPriceRound(uint256,int256)":"59d9d696","decimals()":"313ce567","description()":"7284e416","getRoundData(uint80)":"9a6fc8f5","latestRoundData()":"feaf968c","setPrice(int256)":"f7a30806","version()":"54fd4d50"},"id":80}