{
  "abi": [
    {
      "inputs": [],
      "stateMutability": "nonpayable",
      "type": "constructor"
    },
    {
      "inputs": [
        {
          "internalType": "uint256",
          "name": "_tokenId",
          "type": "uint256"
        },
        {
          "components": [
            {
              "internalType": "address",
              "name": "vaultAddress",
              "type": "address"
            },
            {
              "internalType": "uint256",
              "name": "minted",
              "type": "uint256"
            },
            {
              "internalType": "uint256",
              "name": "maxMintable",
              "type": "uint256"
            },
            {
              "internalType": "uint256",
              "name": "totalCollateralValue",
              "type": "uint256"
            },
            {
              "components": [
                {
                  "components": [
                    {
                      "internalType": "bytes32",
                      "name": "symbol",
                      "type": "bytes32"
                    },
                    {
                      "internalType": "address",
                      "name": "addr",
                      "type": "address"
                    },
                    {
                      "internalType": "uint8",
                      "name": "dec",
                      "type": "uint8"
                    },
                    {
                      "internalType": "address",
                      "name": "clAddr",
                      "type": "address"
                    },
                    {
                      "internalType": "uint8",
                      "name": "clDec",
                      "type": "uint8"
                    }
                  ],
                  "internalType": "struct ITokenManager.Token",
                  "name": "token",
                  "type": "tuple"
                },
                {
                  "internalType": "uint256",
                  "name": "amount",
                  "type": "uint256"
                },
                {
                  "internalType": "uint256",
                  "name": "collateralValue",
                  "type": "uint256"
                }
              ],
              "internalType": "struct ISmartVault.Asset[]",
              "name": "collateral",
              "type": "tuple[]"
            },
            {
              "internalType": "bool",
              "name": "liquidated",
              "type": "bool"
            },
            {
              "internalType": "uint8",
              "name": "version",
              "type": "uint8"
            },
            {
              "internalType": "bytes32",
              "name": "vaultType",
              "type": "bytes32"
            }
          ],
          "internalType": "struct ISmartVault.Status",
          "name": "_vaultStatus",
          "type": "tuple"
        }
      ],
      "name": "generateSvg",
      "outputs": [
        {
          "internalType": "string",
          "name": "",
          "type": "string"
        }
      ],
      "stateMutability": "view",
      "type": "function"
    }
  ],
  "bytecode": {
    "object": "0x60a0806040523461007157610dcd8181016001600160401b0381118382101761005b578291612289833903906000f0801561004f5760805260405161221290816100778239608051816104fe0152f35b6040513d6000823e3d90fd5b634e487b7160e01b600052604160045260246000fd5b600080fdfe600436101561000d57600080fd5b60003560e01c63392ec8941461002257600080fd5b34611da057600319604036820112611da05767ffffffffffffffff60243511611da0576101009060243536030112611da057610180604052610068602435600401611ee4565b608052602480359081013560a052604481013560c052606481013560e0526084013567ffffffffffffffff8111611da0573660238260243501011215611da05767ffffffffffffffff60048260243501013511611e7457604051906100db602060048360243501013560051b0183611ec2565b6004602480358301918201358085526020850193923660e09092020190910111611da05760248181350101915b602480358301600481013560e00201018310611da5576101008490528360243560a401358015158103611da0576101205261014760243560c401611ef8565b6101405260243560e401356101605260405160009060209061016881611e8a565b60608152015260405161017a81611ea6565b6000815260009060005b83518110156104bd5760208160051b8501015160018416156000146104b55760005b60208201516101c0575b50506101bb90611fc7565b610184565b6101d96101d486600197969495971c611fd6565b611fa7565b9260328401841161047a576101f161ffff8316611fb7565b60168101811161047a5760166102079101612074565b9361021460328201612074565b908251519360405194630db91bb560e41b8652600486015260008560248173__$494f05c0e716ee04a87bbde4e93142de0e$__5af494851561046e57600095610490575b5061ffff6102669116611fb7565b6101108101811161047a57603261028361011061028a9301612074565b9201612074565b60ff60406020860151955101511660405194638aded8d360e01b86526004860152602485015260008460448173__$494f05c0e716ee04a87bbde4e93142de0e$__5af493841561046e57600094610449575b506040519686889751908160208a0191602001916102f992611f06565b870160208101621e339f60e91b905260230161031490611fec565b80825160208194019161032692611f06565b0192600160fd1b938481528151918260018301916020019161034792611f06565b01936214939f60e91b806001870152721e3a39b830b7103c1e939813903c9e9398139f60691b95866004820152875190601798828a8301916020019161038c92611f06565b0195671e17ba39b830b71f60c11b938489890152661e17ba32bc3a1f60c91b96601f9688888b01526026809a016103c290611fec565b8082516020819401916103d492611f06565b01908152815191826001830191602001916103ee92611f06565b01916001830152600482015281519182888301916020019161040f92611f06565b01948501528301528101631e17b39f60e11b905203600a81018252602a016104379082611ec2565b9061044190611fc7565b9184806101b0565b6104679194503d806000833e61045f8183611ec2565b810190611f45565b928a6102dc565b6040513d6000823e3d90fd5b634e487b7160e01b600052601160045260246000fd5b6102669195506104ad61ffff913d806000833e61045f8183611ec2565b959150610258565b6102696101a6565b50908015611c51575b604051916104d383611e8a565b8252602082019081526040516364c59abf60e01b8152600480359082018190529091906000836024817f00000000000000000000000000000000000000000000000000000000000000006001600160a01b03165afa92831561046e57600093611c34575b5061054a61054482612074565b91612074565b91519260405161055981611ea6565b60008152946001850180951161047a5792939190600094600184811c01925b838560011c1161047a578360011c87101561079f57610165936040519661059e88611e8a565b60038852602036818a0137602388015b6000190195600a906f181899199a1a9b1b9c1cb0b131b232b360811b8282061a88530495866105ae5750919396945091946105f36105ee6101d48a611fd6565b612074565b966104d3936040519761060589611e8a565b60048952602036818b0137602489015b6000190195600a906f181899199a1a9b1b9c1cb0b131b232b360811b8282061a8853049586610615575091939a95909294506043936040519b6106578d611e8a565b60028d52602036818f013760228d015b6000190195600a906f181899199a1a9b1b9c1cb0b131b232b360811b8282061a8853049586610667575096909761079495509b6213979f60e91b6052939a6927206865696768743d2760b01b6106ec979e9f9d68272077696474683d2760b81b61078e989f642720793d2760d81b60206040519c8d8b83829d51948593019101611f06565b89017f3c7265637420636c6173733d27636c732d392720783d27000000000000000000602082015282519061072a8260379560208785019101611f06565b019182015282519061074582603c9560208785019101611f06565b01918201528251906107608260459560208785019101611f06565b019182015282519061077b82604f9560208785019101611f06565b0191820152036032810184520182611ec2565b97611fc7565b959291949093610578565b8783876107b16101d48960011c611fd6565b926107ba612027565b936101cc91604051926107cc84611e8a565b6003845260203681860137602384015b6000190190600a906f181899199a1a9b1b9c1cb0b131b232b360811b8282061a83530490816107dc5750506108f692604e92610819610544612027565b9160405198846108338b965180926020808a019101611f06565b85017f3c6c696e6520636c6173733d27636c732d3131272078313d2700000000000000602082015261086f825180936020603985019101611f06565b0165272079313d2760d01b6039820152610893825180936020603f85019101611f06565b0165272078323d2760d01b603f8201526108b7825180936020604585019101611f06565b0165272079323d2760d01b60458201526108db825180936020604b85019101611f06565b016213979f60e91b604b82015203602e810186520184611ec2565b5160e051604051638aded8d360e01b81526004810191909152601260248201529060008260448173__$494f05c0e716ee04a87bbde4e93142de0e$__5af491821561046e57600092611c17575b5060a051604051638aded8d360e01b81526004810191909152601260248201529460008660448173__$494f05c0e716ee04a87bbde4e93142de0e$__5af495861561046e57600096611bfa575b5060a051611b25576040516109a481611e8a565b60038152624e2f4160e81b6020820152945b60e05160a05181039690871161047a5760405196638aded8d360e01b885260048801526012602488015260008760448173__$494f05c0e716ee04a87bbde4e93142de0e$__5af494851561046e57610aec99611ad799610d3999600098611b08575b5060b16040519c8d809b7f3c3f786d6c2076657273696f6e3d27312e302720656e636f64696e673d27555460208301526523169c139f9f60d11b60408301527f3c73766720786d6c6e733d27687474703a2f2f7777772e77332e6f72672f323060468301527f30302f7376672720786d6c6e733a786c696e6b3d27687474703a2f2f7777772e60668301527f77332e6f72672f313939392f786c696e6b272076696577426f783d273020302060868301526a191c1c1810189b1918139f60a91b60a683015260208151948593019101611f06565b890195621e339f60e91b968760b1820152723c7265637420636c6173733d27746f6b656e2d60681b60b4820152610b2d82518093602060c785019101611f06565b01927f2d636c732d3132272077696474683d273238383027206865696768743d27313660c785015264191813979f60d91b60e78501527f3c726563742077696474683d273236303027206865696768743d27313534302760ec8501527f20636c6173733d277472616e73706172656e742d6261636b67726f756e642d6361010c8501527f6f6e7461696e657227207472616e73666f726d3d277472616e736c617465283161012c850152711a1816101a18149390393c1e939c1813979f60711b61014c85015286631e17b39f60e11b988961015e87015281610162870152816101658701527f3c7465787420636c6173733d27636c732d3427207472616e73666f726d3d27746101688701527f72616e736c617465283233392e3837203136342e323729273e3c747370616e206101888701527f783d27302720793d2730273e546865206f776e6572206f662074686973204e466101a88701527f54206f776e732074686520636f6c6c61746572616c20616e6420646562743c2f6101c88701526c3a39b830b71f1e17ba32bc3a1f60991b6101e88701527f3c7465787420636c6173733d27636c732d3227207472616e73666f726d3d27746101f58701527f72616e736c617465283234342e3837203235342e3329273e3c747370616e20786102158701527f3d27302720793d2730273e4e4f54453a204e4654206d61726b6574706c6163656102358701527f2063616368696e67206d696768742073686f77206f6c646572204e46542064616102558701527f74612c20697420697320757020746f2074686520627579657220746f206368656102758701527f636b2074686520626c6f636b636861696e203c2f747370616e3e3c2f74657874610295870152601f60f91b6102b5870152896102b68701527f3c7465787420636c6173733d27636c732d3627207472616e73666f726d3d27746102ba8701527f72616e736c617465283335372e3534203432362e333329273e3c747370616e206102da8701527f783d27302720793d2730273e436f6c6c61746572616c206c6f636b656420696e6102fa8701527f2074686973207661756c743c2f747370616e3e3c2f746578743e00000000000061031a8701527f3c7465787420636c6173733d27636c732d3527207472616e73666f726d3d277495866103348201527f72616e736c61746528313731352e3633203432362e333329273e3c747370616e6103548201527f20783d27302720793d2730273e4555524f7320536d6172745661756c74202300610374820152855190610eeb826103939860208a85019101611f06565b016e1e17ba39b830b71f1e17ba32bc3a1f60891b8096820152885190610f1b826103a29b60208d85019101611f06565b01610f2f8251809360208c85019101611f06565b0196870152836103a58701527f72616e736c61746528313731332e3334203731392e343129273e3c747370616e6103c58701527f20783d27302720793d2730273e546f74616c2056616c75653c2f747370616e3e6103e5870152661e17ba32bc3a1f60c91b6104058701527f3c7465787420636c6173733d27636c732d3727207472616e73666f726d3d2774908161040c8801527f72616e736c61746528323139312e3033203731392e343129273e3c747370616e61042c8801526c103c1e939813903c9e9398139f60991b968761044c82015281519061101a826104599460208685019101611f06565b01741022aaa927b99e17ba39b830b71f1e17ba32bc3a1f60591b978880938301528a61046e83015289610472830152866104758301527f72616e736c61746528313731332e3334203832322e373529273e3c747370616e6104958301527f20783d27302720793d2730273e446562743c2f747370616e3e3c2f746578743e6104b5830152836104d58301527f72616e736c61746528323139312e3033203832322e373529273e3c747370616e6104f58301526105158201528351906110e9826105229660208885019101611f06565b0192830152876105378301528661053b8301528361053e8301527f72616e736c61746528313731332e3334203932342e3129273e3c747370616e2061055e8301527f783d27302720793d2730273e436f6c6c61746572616c2f446562743c2f74737061057e8301526930b71f1e17ba32bc3a1f60b11b61059e8301526105a88201527f72616e736c61746528323139312e3033203932342e3129273e3c747370616e206105c88201526b3c1e939813903c9e9398139f60a11b6105e88201528351906111bf826105f49660208885019101611f06565b019283015284610603830152836106078301528061060a8301527f72616e736c61746528313731342e323120313133362e393229273e3c7473706161062a8301527f6e20783d27302720793d2730273e546f74616c2076616c7565206d696e75732061064a830152733232b13a1d1e17ba39b830b71f1e17ba32bc3a1f60611b61066a83015261067e8201527f72616e736c61746528313731352e363320313232302e323229273e3c7473706161069e8201526d37103c1e939813903c9e9398139f60911b6106be8201528451906112a1826106cc9760208985019101611f06565b0193840152816106e1840152816106e5840152806106e9840152806106ec8401527f3c7061746820636c6173733d27636c732d332720643d274d3239332e31372c316106ef8401527f34343663322e39322c302c352e35392c2e33312c382e30312c2e39322c322e3461070f8401527f322c2e36312c342e37372c312e34382c372e30352c322e35386c2d342e322c3961072f8401527f2e39632d312e39392d2e38382d332e38322d312e35362d352e35322d322e303661074f8401527f2d312e36392d2e352d332e34372d2e37342d352e33342d2e37342d332e34352c61076f8401527f302d362e33312c312e30312d382e35382c332e30322d322e32382c322e30312d61078f8401527f332e37342c342e39322d342e33382c382e37316831372e323576372e3533682d6107af8401527f31372e383763302c2e32332d2e30322c2e35342d2e30342c2e39322d2e30332c6107cf8401527f2e33382d2e30342c2e38332d2e30342c312e333676312e333163302c2e34312c6107ef8401527f2e30332c2e38352c2e30392c312e33316831352e313576372e3632682d31342e61080f8401527f343563312e342c362e39352c352e39382c31302e34322c31332e37352c31302e61082f8401527f34322c322e32322c302c342e33312d2e32322c362e32362d2e36362c312e393661084f8401527f2d2e34342c332e37382d312e30342c352e34372d312e387631302e3935632d3161086f8401527f2e36342c2e38322d332e34362c312e34352d352e34372c312e38382d322e303161088f8401527f2c2e34342d342e33372c2e36362d372e30352c2e36362d362e38332c302d31326108af8401527f2e35322d312e38352d31372e30382d352e35362d342e35352d332e37312d372e6108cf8401527f34342d392e30312d382e36372d31352e39682d352e3837762d372e363268352e6108ef8401527f3038632d2e31322d2e38322d2e31382d312e36392d2e31382d322e3633762d3161090f8401527f2e333163302d2e34312c2e30332d2e37332c2e30392d2e3936682d342e39397661092f8401527f2d372e353368352e3639632e37362d342e36372c322e33312d382e36372c342e61094f8401527f36342d31322c322e33332d332e33332c352e33312d352e38382c382e39332d3761096f8401527f2e36362c332e36322d312e37382c372e37312d322e36372c31322e32362d322e61098f840152651b1bad13979f60d11b6109af8401527f3c7061746820636c6173733d27636c732d332720643d274d3235352e38322c316109b58401527f3437392e3537682d31362e3333762d32332e323263302d31372e37362c31342e6109d58401527f34352d33322e32312c33322e32312d33322e32316836312e32357631362e33336109f58401527f682d36312e3235632d382e37352c302d31352e38382c372e31322d31352e3838610a158401526f16189a971c1c3b19199719192d13979f60811b610a358401527f3c7061746820636c6173733d27636c732d332720643d274d3330302e35392c31610a458401527f3533312e3838682d36302e3731762d31362e33336836302e373163382e36312c610a658401527f302c31352e38382d352e32322c31352e38382d31312e34762d32342e31376831610a858401527f362e33337632342e313763302c31352e32392d31342e34352c32372e37332d33610aa58401526d1917191896191b971b99ad13979f60911b610ac584015281610ad384015280610ad78401527f3c7465787420636c6173733d27636c732d313027207472616e73666f726d3d27610ada8401527f7472616e736c617465283335372e3220313439342e343829273e3c747370616e610afa8401527f20783d27302720793d2730273e4555524f7320536d6172745661756c743c2f74610b1a8401526b39b830b71f1e17ba32bc3a1f60a11b610b3a84015281610b4684015281610b4a84015280610b4e84015280610b51840152610b548301527f3c7465787420636c6173733d27636c732d3127207472616e73666f726d3d2774610b578301527f72616e736c61746528323137332e3220313439362e3129273e3c747370616e20610b778301527f783d27302720793d2730273e5468655374616e646172642e696f3c2f74737061610b9783015268371f1e17ba32bc3a1f60b91b610bb783015280610bc08301527f3c7265637420636c6173733d27636c732d332720783d27323039372e36272079610bc48301527f3d27313435332e3636272077696474683d2731362e343327206865696768743d610be483015267139a1c971b13979f60c11b610c048301527f3c7061746820636c6173733d27636c732d332720643d274d323037342e38322c610c0c8301527f313437392e3734682d31362e3338762d32332e323963302d31372e38312c3134610c2c8301527f2e34392d33322e33312c33322e33312d33322e33316836312e34337631362e33610c4c8301527f38682d36312e3433632d382e37382c302d31352e39332c372e31342d31352e39610c6c830152701996189a971c99bb191997191cad13979f60791b610c8c8301527f3c7061746820636c6173733d27636c732d332720643d274d323131392e37322c610c9d8301527f313533322e3231682d36302e39762d31362e33386836302e3963382e36332c30610cbd8301527f2c31352e39332d352e32342c31352e39332d31312e3434762d32342e32346831610cdd8301527f362e33387632342e323463302c31352e33342d31342e34392c32372e38322d33610cfd8301526d1917199896191b971c192d13979f60911b610d1d83015280610d2b830152610d2f820152651e17b9bb339f60d11b610d3382015203610d19810184520182611ec2565b60408051809260208252611afa8151809281602086015260208686019101611f06565b601f01601f19168101030190f35b611b1e9198503d806000833e61045f8183611ec2565b968c610a18565b60e051620186a090818102829004810361047a5760a051908115611be457604051638aded8d360e01b815292020460048201526003602482015260008160448173__$494f05c0e716ee04a87bbde4e93142de0e$__5af490811561046e57600091611bc9575b50611bc3602160405183611ba9829551809260208086019101611f06565b8101602560f81b6020820152036001810184520182611ec2565b946109b6565b611bde91503d806000833e61045f8183611ec2565b88611b8b565b634e487b7160e01b600052601260045260246000fd5b611c109196503d806000833e61045f8183611ec2565b9487610990565b611c2d9192503d806000833e61045f8183611ec2565b9086610943565b611c4a9193503d806000833e61045f8183611ec2565b9184610537565b505061017b604051611c6281611e8a565b6003815260208101916020368437602382015b6000190190600a906f181899199a1a9b1b9c1cb0b131b232b360811b8282061a8353049081611c755750506040516101fe91611cb082611e8a565b6003825260208201926020368537602383015b6000190190600a906f181899199a1a9b1b9c1cb0b131b232b360811b8282061a8353049081611cc3575050611d9992602d92611d3b604051968794621e339f60e91b6020870152611d25611d1960238801611fec565b92839251938491611f06565b0191600160fd1b83525180936001840190611f06565b016214939f60e91b60018201527f3c747370616e20783d27302720793d2730273e4e2f413c2f747370616e3e00006004820152661e17ba32bc3a1f60c91b6022820152631e17b39f60e11b602982015203600d810184520182611ec2565b60016104c6565b600080fd5b60e083360312611da0576040519081606081011067ffffffffffffffff606084011117611e745760a084360312611da0576060820161010083011067ffffffffffffffff61010084011117611e7457602060e091836101006024950160405286356060820152611e16838801611ee4565b60809081830152611e2960408901611ef8565b60a0830152611e4c611e3d60608a01611ee4565b9160c092838501528901611ef8565b8583015260608201825260a08801358483015287013560408201528152019301929050610108565b634e487b7160e01b600052604160045260246000fd5b6040810190811067ffffffffffffffff821117611e7457604052565b6020810190811067ffffffffffffffff821117611e7457604052565b90601f8019910116810190811067ffffffffffffffff821117611e7457604052565b35906001600160a01b0382168203611da057565b359060ff82168203611da057565b60005b838110611f195750506000910152565b8181015183820152602001611f09565b67ffffffffffffffff8111611e7457601f01601f191660200190565b602081830312611da05780519067ffffffffffffffff8211611da0570181601f82011215611da0578051611f7881611f29565b92611f866040519485611ec2565b81845260208284010111611da057611fa49160208085019101611f06565b90565b906101cc91820180921161047a57565b9061016591820180921161047a57565b600019811461047a5760010190565b9060438202918083046043149015171561047a57565b7f3c7465787420636c6173733d27636c732d3827207472616e73666f726d3d27748152680e4c2dce6d8c2e8ca560bb1b602082015260290190565b60405161031c61203682611e8a565b6003825260203681840137602382015b6000190190600a906f181899199a1a9b1b9c1cb0b131b232b360811b8282061a835304908161204657505090565b806000917a184f03e93ff9f4daa797ed6e38ed64bf6a1f010000000000000000808210156121ce575b506d04ee2d6d415b85acef8100000000808310156121bf575b50662386f26fc10000808310156121b0575b506305f5e100808310156121a1575b5061271080831015612192575b506064821015612182575b600a80921015612178575b6001908160218186019561210d87611f29565b9661211b6040519889611ec2565b80885261212a601f1991611f29565b01366020890137860101905b612142575b5050505090565b600019019083906f181899199a1a9b1b9c1cb0b131b232b360811b8282061a83530491821561217357919082612136565b61213b565b91600101916120fa565b91906064600291049101916120ef565b600491939204910191386120e4565b600891939204910191386120d7565b601091939204910191386120c8565b602091939204910191386120b6565b60409350810491503861209d56fea2646970667358221220c3c9076b77247af806cfdc775fca19eca1e23beefbcc4e8d4f26e4eaab7e5e4464736f6c634300081100336080806040523461001657610db1908161001c8239f35b600080fdfe6080604081815260048036101561001557600080fd5b600092833560e01c6364c59abf1461002c57600080fd5b34610acb5760209081600319360112610ac757848484359261004d81610af2565b82815282858201520152835194610320860186811067ffffffffffffffff821117610ab45785526608d1918d8e508d60ca1b865266119ca11818232360c91b838701819052661198182323232360c91b878701819052661198181818232360c91b6060890152662333333333333360c81b6080890152660234646443730360cc1b60a089015260c088015260e0870152660234330433043360cc1b610100870152660233030303041360cc1b610120870152660234343464630360cc1b610140870152662346464646333360c81b610160870152660234646303030360cc1b610180870152660233830303038360cc1b6101a087015266119a2118181c1960c91b6101c087015266119b231818232360c91b6101e0870152662346463134393360c81b6102008701526608d19190504c5160ca1b610220870152660234646374530360cc1b610240870152660233030464630360cc1b610260870152662346463645433760c81b61028087015266119c211818232360c91b6102a0870152662346464130374160c81b6102c08701526608d1914d0c4d8d60ca1b6102e080880191909152660233030383038360cc1b6103008801529360198306906102128289610bc9565b5197601985046102228185610bf0565b60018101809111610aa157610253916102416019610248930685610bc9565b5195610bf0565b610271870490610bf0565b60028101809111610a8e5790601961026c920690610bc9565b519087519861027a8a610af2565b895285890192835287890191825261029185610c13565b986102a461029e87610c13565b96610c13565b9173__$494f05c0e716ee04a87bbde4e93142de0e$__91518a5195630db91bb560e41b91828852838801528787602481875af4968715610a68578897610a72575b5051948b5195828752838701528786602481875af4958615610a685790889392918497610a47575b509060249151948d51958694859384528301525af4948515610a3c578095610a17575b50508588519788968288019b651e3232b3399f60d11b8d5260268901661e39ba3cb6329f60c91b9052602d8901672e636c732d31207b60c01b905272666f6e742d66616d696c793a20417269616c3b60681b8060358b015271666f6e742d7765696768743a20626f6c643b60701b8060488c0152605a8b0172666f6e742d73697a653a2036302e383870783b60681b9052607d60f81b9384606d8d0152606e8c017f2e636c732d312c202e636c732d322c202e636c732d332c202e636c732d342c209052608e8c017f2e636c732d352c202e636c732d362c202e636c732d372c202e636c732d382c20905260ae8c01702e636c732d392c202e636c732d3130207b60781b905260bf8c016a66696c6c3a20236666663b60a81b905260ca8c017f746578742d736861646f773a2031707820317078202330303030303038303b0090528460e98d015260ea8c01682e636c732d3131207b60b81b905260f38c016a66696c6c3a206e6f6e653b60a81b905260fe8c016c7374726f6b653a20236666663b60981b905261010b8c01757374726f6b652d6d697465726c696d69743a2031303b60501b90526101218c01717374726f6b652d77696474683a203370783b60701b9052846101338d01526101348c01672e636c732d32207b60c01b905261013c8c0171666f6e742d73697a653a2034362e3570783b60701b90528461014e8d015261014f8c017f2e636c732d322c202e636c732d342c202e636c732d372c202e636c732d382c2090528b682e636c732d3130207b60b81b948561016f830152846101788301528661018b83015261018c8201672e636c732d34207b60c01b9052610194820172666f6e742d73697a653a2039352e393770783b60681b9052866101a78301526101a88201662e746f6b656e2d60c81b9052805190818a6101af8095019201916105e092610acf565b8d01908101682d636c732d3132207b60b81b90526101b881017f66696c6c3a2075726c28236c696e6561722d6772616469656e742d00000000009052815191826101d3998a840192019161063392610acf565b61293b60f01b9101968701526101d58601849052672e636c732d35207b60c01b6101d68701526101de86018290526101f186015261020385018390526f2e636c732d352c202e636c732d37207b60801b61020486015272666f6e742d73697a653a2035302e333970783b60681b6102148601526102278501839052672e636c732d36207b60c01b6102288601526102308501526f666f6e742d73697a653a20353570783b60801b6102438501526102538401829052672e636c732d38207b60c01b61025485015272666f6e742d73697a653a2034322e363970783b60681b61025c85015261026f8401829052672e636c732d39207b60c01b6102708501526c6f7061636974793a202e31373b60981b610278850152610285840182905261028684015272666f6e742d73697a653a2036332e373770783b60681b61028f8401526102a283018190527f2e7472616e73706172656e742d6261636b67726f756e642d636f6e7461696e656102a38401526272207b60e81b6102c38401527f66696c6c3a207267626128302c20302c20302c20302e33293b000000000000006102c68401526102df830152671e17b9ba3cb6329f60c11b908201527f3c6c696e6561724772616469656e742069643d276c696e6561722d67726164696102e882015263656e742d60e01b610308820152815161030c9290919061083b908390858401908b01610acf565b7f272078313d27333135272079313d2731393335272078323d27323536352720799101918201527f323d272d33313527206772616469656e745472616e73666f726d3d276d61747261032c8201527f697828312c20302c20302c20312c20302c20302927206772616469656e74556e61034c8201527434ba399e93bab9b2b929b830b1b2a7b72ab9b2939f60591b61036c8201527f3c73746f70206f66667365743d272e3338272073746f702d636f6c6f723d270061038182015282516103a093909190610910908390868401908a01610acf565b01916213979f60e91b928380928201526103a381017f3c73746f70206f66667365743d272e3737272073746f702d636f6c6f723d270090528251906103c293828986840192019161096092610acf565b01918201526103c581017f3c73746f70206f66667365743d2731272073746f702d636f6c6f723d2700000090528251906103e29382878684019201916109a592610acf565b01918201526103e58101701e17b634b732b0b923b930b234b2b73a1f60791b90526103f68101661e17b232b3399f60c91b9052036103dd810183526103fd016109ee9083610b24565b825193849282845251809284015281848401610a0992610acf565b601f01601f19168101030190f35b610a349295503d8091833e610a2c8183610b24565b810190610b62565b923880610330565b8951903d90823e3d90fd5b602492919750610a60903d8087833e610a2c8183610b24565b96909161030d565b8c513d8a823e3d90fd5b610a879197503d808a833e610a2c8183610b24565b95386102e5565b634e487b7160e01b855260118352602485fd5b634e487b7160e01b865260118452602486fd5b634e487b7160e01b825260418552602482fd5b8480fd5b8380fd5b60005b838110610ae25750506000910152565b8181015183820152602001610ad2565b6060810190811067ffffffffffffffff821117610b0e57604052565b634e487b7160e01b600052604160045260246000fd5b90601f8019910116810190811067ffffffffffffffff821117610b0e57604052565b67ffffffffffffffff8111610b0e57601f01601f191660200190565b602081830312610bc45780519067ffffffffffffffff8211610bc4570181601f82011215610bc4578051610b9581610b46565b92610ba36040519485610b24565b81845260208284010111610bc457610bc19160208085019101610acf565b90565b600080fd5b906019811015610bda5760051b0190565b634e487b7160e01b600052603260045260246000fd5b91908201809211610bfd57565b634e487b7160e01b600052601160045260246000fd5b806000917a184f03e93ff9f4daa797ed6e38ed64bf6a1f01000000000000000080821015610d6d575b506d04ee2d6d415b85acef810000000080831015610d5e575b50662386f26fc1000080831015610d4f575b506305f5e10080831015610d40575b5061271080831015610d31575b506064821015610d21575b600a80921015610d17575b60019081602181860195610cac87610b46565b96610cba6040519889610b24565b808852610cc9601f1991610b46565b01366020890137860101905b610ce1575b5050505090565b600019019083906f181899199a1a9b1b9c1cb0b131b232b360811b8282061a835304918215610d1257919082610cd5565b610cda565b9160010191610c99565b9190606460029104910191610c8e565b60049193920491019138610c83565b60089193920491019138610c76565b60109193920491019138610c67565b60209193920491019138610c55565b604093508104915038610c3c56fea264697066735822122037d49d1ecc422d2529e0698e0abdf0f08d8f1aa23938c8d593be8daaa1bf40ee64736f6c63430008110033",
    "linkReferences": {
      "contracts/utils/nfts/NFTUtils.sol": {
        "NFTUtils": [
          {
            "start": 683,
            "length": 20
          },
          {
            "start": 815,
            "length": 20
          },
          {
            "start": 2454,
            "length": 20
          },
          {
            "start": 2531,
            "length": 20
          },
          {
            "start": 2655,
            "length": 20
          },
          {
            "start": 7134,
            "length": 20
          },
          {
            "start": 9548,
            "length": 20
          }
        ]
      }
    }
  },
  "methodIdentifiers": {
    "generateSvg(uint256,(address,uint256,uint256,uint256,((bytes32,address,uint8,address,uint8),uint256,uint256)[],bool,uint8,bytes32))": "392ec894"
  },
  "id": 31
}