{"abi":[{"type":"constructor","inputs":[{"name":"_native","type":"bytes32","internalType":"bytes32"},{"name":"_clEurUsd","type":"address","internalType":"address"}],"stateMutability":"nonpayable"},{"type":"function","name":"clEurUsd","inputs":[],"outputs":[{"name":"","type":"address","internalType":"contract AggregatorV3InterfaceForTest"}],"stateMutability":"view"},{"type":"function","name":"eurToToken","inputs":[{"name":"_token","type":"tuple","internalType":"struct ITokenManager.Token","components":[{"name":"symbol","type":"bytes32","internalType":"bytes32"},{"name":"addr","type":"address","internalType":"address"},{"name":"dec","type":"uint8","internalType":"uint8"},{"name":"clAddr","type":"address","internalType":"address"},{"name":"clDec","type":"uint8","internalType":"uint8"}]},{"name":"_eurValue","type":"uint256","internalType":"uint256"}],"outputs":[{"name":"","type":"uint256","internalType":"uint256"}],"stateMutability":"view"},{"type":"function","name":"tokenToEur","inputs":[{"name":"_token","type":"tuple","internalType":"struct ITokenManager.Token","components":[{"name":"symbol","type":"bytes32","internalType":"bytes32"},{"name":"addr","type":"address","internalType":"address"},{"name":"dec","type":"uint8","internalType":"uint8"},{"name":"clAddr","type":"address","internalType":"address"},{"name":"clDec","type":"uint8","internalType":"uint8"}]},{"name":"_tokenValue","type":"uint256","internalType":"uint256"}],"outputs":[{"name":"","type":"uint256","internalType":"uint256"}],"stateMutability":"view"},{"type":"function","name":"tokenToEurAvg","inputs":[{"name":"_token","type":"tuple","internalType":"struct ITokenManager.Token","components":[{"name":"symbol","type":"bytes32","internalType":"bytes32"},{"name":"addr","type":"address","internalType":"address"},{"name":"dec","type":"uint8","internalType":"uint8"},{"name":"clAddr","type":"address","internalType":"address"},{"name":"clDec","type":"uint8","internalType":"uint8"}]},{"name":"_tokenValue","type":"uint256","internalType":"uint256"}],"outputs":[{"name":"","type":"uint256","internalType":"uint256"}],"stateMutability":"view"}],"bytecode":{"object":"0x60c03461008b57601f61060b38819003918201601f19168301916001600160401b0383118484101761009057808492604094855283398101031261008b5780516020909101516001600160a01b038116919082900361008b5760805260a05260405161056490816100a782396080518161045f015260a05181818160690152818160f6015261031b0152f35b600080fd5b634e487b7160e01b600052604160045260246000fdfe604060808152600436101561001357600080fd5b6000803560e01c91826332ed2bf3146101cc57826353d372121461009c57826369dfc7861461005657505063d4d6c4e21461004e575b600080fd5b610049610299565b34610098578160031936011261009857517f00000000000000000000000000000000000000000000000000000000000000006001600160a01b03168152602090f35b5080fd5b34610098576100aa3661020f565b60608201518351633fabe5a360e21b8082526001600160a01b039493919260a09291908390859060049082908a165afa93841561019e5788946101a8575b5086519081528281600481897f0000000000000000000000000000000000000000000000000000000000000000165afa92831561019e57936101456101589461016398979461014a9461015d9860209d9361016a575b50506103da565b610439565b938782519201511690610459565b6103b6565b90610439565b9051908152f35b61018a929350803d10610197575b61018281836101d7565b810190610404565b5050509050908c8061013e565b503d610178565b87513d8a823e3d90fd5b6101c0919450833d85116101975761018281836101d7565b505050905092886100e8565b505050610049610299565b90601f8019910116810190811067ffffffffffffffff8211176101f957604052565b634e487b7160e01b600052604160045260246000fd5b6003190160c081126100495760a0136100495760405160a0810181811067ffffffffffffffff8211176101f95760405260043581526001600160a01b03602435818116810361004957602083015260443560ff81168103610049576040830152606435908116810361004957606082015260843560ff811681036100495760808201529060a43590565b5034610049576102a83661020f565b906102d760018060a01b03926102d1610158856060860151169486602082519201511690610459565b906103da565b906040519182633fabe5a360e21b9283825281600460a09687935afa801561038657849261030d92600092610392575b506103da565b9160046040518096819382527f0000000000000000000000000000000000000000000000000000000000000000165afa9081156103865760209361035a93600093610362575b5050610439565b604051908152f35b610379929350803d106101975761018281836101d7565b5050509050903880610353565b6040513d6000823e3d90fd5b6103aa919250843d86116101975761018281836101d7565b50505090509038610307565b604d81116103c457600a0a90565b634e487b7160e01b600052601160045260246000fd5b818102929181159184041417156103c457565b519069ffffffffffffffffffff8216820361004957565b908160a091031261004957610418816103ed565b916020820151916040810151916104366080606084015193016103ed565b90565b8115610443570490565b634e487b7160e01b600052601260045260246000fd5b600091907f00000000000000000000000000000000000000000000000000000000000000000361048b57506000919050565b60405163313ce56760e01b815290602090829060049082906001600160a01b03165afa80156105235782906104e7575b60ff9150166012039060ff82116104d3575060ff1690565b634e487b7160e01b81526011600452602490fd5b506020813d821161051b575b81610500602093836101d7565b81010312610098575160ff811681036100985760ff906104bb565b3d91506104f3565b6040513d84823e3d90fdfea2646970667358221220ed7bffe99d4ef3e74c24faec5d36dc8d739067e8554d459950c8f4c0fbf204bf64736f6c63430008110033","linkReferences":{}},"methodIdentifiers":{"clEurUsd()":"69dfc786","eurToToken((bytes32,address,uint8,address,uint8),uint256)":"53d37212","tokenToEur((bytes32,address,uint8,address,uint8),uint256)":"d4d6c4e2","tokenToEurAvg((bytes32,address,uint8,address,uint8),uint256)":"32ed2bf3"},"id":83}