{
  "abi": [
    {
      "inputs": [
        {
          "internalType": "uint256",
          "name": "_collateralRate",
          "type": "uint256"
        },
        {
          "internalType": "address",
          "name": "_tokenManager",
          "type": "address"
        }
      ],
      "stateMutability": "nonpayable",
      "type": "constructor"
    },
    {
      "inputs": [],
      "name": "HUNDRED_PC",
      "outputs": [
        {
          "internalType": "uint256",
          "name": "",
          "type": "uint256"
        }
      ],
      "stateMutability": "view",
      "type": "function"
    },
    {
      "inputs": [],
      "name": "burnFeeRate",
      "outputs": [
        {
          "internalType": "uint256",
          "name": "",
          "type": "uint256"
        }
      ],
      "stateMutability": "view",
      "type": "function"
    },
    {
      "inputs": [],
      "name": "collateralRate",
      "outputs": [
        {
          "internalType": "uint256",
          "name": "",
          "type": "uint256"
        }
      ],
      "stateMutability": "view",
      "type": "function"
    },
    {
      "inputs": [
        {
          "internalType": "uint256",
          "name": "_tokenId",
          "type": "uint256"
        }
      ],
      "name": "liquidateVault",
      "outputs": [],
      "stateMutability": "nonpayable",
      "type": "function"
    },
    {
      "inputs": [],
      "name": "mintFeeRate",
      "outputs": [
        {
          "internalType": "uint256",
          "name": "",
          "type": "uint256"
        }
      ],
      "stateMutability": "view",
      "type": "function"
    },
    {
      "inputs": [],
      "name": "protocol",
      "outputs": [
        {
          "internalType": "address",
          "name": "",
          "type": "address"
        }
      ],
      "stateMutability": "view",
      "type": "function"
    },
    {
      "inputs": [],
      "name": "tokenManager",
      "outputs": [
        {
          "internalType": "address",
          "name": "",
          "type": "address"
        }
      ],
      "stateMutability": "view",
      "type": "function"
    },
    {
      "inputs": [],
      "name": "totalSupply",
      "outputs": [
        {
          "internalType": "uint256",
          "name": "",
          "type": "uint256"
        }
      ],
      "stateMutability": "view",
      "type": "function"
    },
    {
      "stateMutability": "payable",
      "type": "receive"
    }
  ],
  "bytecode": {
    "object": "0x60c03461008357601f6106d838819003918201601f19168301916001600160401b03831184841017610088578084926040948552833981010312610083578051602090910151906001600160a01b03821682036100835760805260a052604051610639908161009f8239608051816104c8015260a05181818160b5015261051f0152f35b600080fd5b634e487b7160e01b600052604160045260246000fdfe6080604090808252600480361015610022575b505050361561002057600080fd5b005b600091823560e01c90816318160ddd1461058b5750806318819a311461056c57806320fdf0701461054e5780632a709b141461050a578063509bf42a146104eb57806358a6be1c146104b05780638ce7442614610488576390cf0bba03610012573461048457602092836003193601126104805780516317bab80360e11b8152929384936001600160a01b0390858186817f000000000000000000000000000000000000000000000000000000000000000086165afa908115610476578691610354575b5085965b8151881015610305578284808a60051b8501015101511680158080916102fc575b1561019a575050508580808047335af13d15610195573d67ffffffffffffffff811161018257855190610147601f8201601f19168701836105a4565b815287853d92013e5b1561017e576001965b600019811461016b57600101966100ea565b634e487b7160e01b875260118652602487fd5b8580fd5b634e487b7160e01b885260418752602488fd5b610150565b989198156101a9575b50610159565b85516370a0823160e01b80825230898301529060249087818381875afa9081156102f2578b916102c1575b506101e1575b50506101a3565b90919299508651918252308883015285828281865afa9182156102b757908692918a92610282575b506044908a8951958694859363a9059cbb60e01b85528d33908601528401525af1801561027857610241575b506001963880806101da565b8381813d8311610271575b61025681836105a4565b8101031261026d57518015150361017e5738610235565b8680fd5b503d61024c565b85513d89823e3d90fd5b8092508391933d83116102b0575b61029a81836105a4565b810103126102ac575185916044610209565b8880fd5b503d610290565b87513d8b823e3d90fd5b90508781813d83116102eb575b6102d881836105a4565b810103126102e75751386101d4565b8a80fd5b503d6102ce565b89513d8d823e3d90fd5b5047151561010b565b858486899315610313578380f35b5162461bcd60e51b815291820152601d60248201527f7661756c742d6e6f742d756e646572636f6c6c61746572616c69736564000000604482015260649150fd5b90503d8087833e61036581836105a4565b8101838282031261026d57815167ffffffffffffffff928382116102ac570181601f820112156104725780519183831161045f578651936103ab878560051b01866105a4565b838552868501918760a08096028501019381851161045b578801925b8484106103da57505050505050386100e6565b858483031261045b57895186810181811085821117610448578b528451815286918a916104088784016105dc565b838201526104178d88016105f5565b8d82015260606104288189016105dc565b9082015260806104398189016105f5565b908201528152019301926103c7565b634e487b7160e01b8e5260418d5260248efd5b8b80fd5b634e487b7160e01b895260418852602489fd5b8780fd5b84513d88823e3d90fd5b8280fd5b5080fd5b828434610484578160031936011261048457905490516001600160a01b039091168152602090f35b828434610484578160031936011261048457602090517f00000000000000000000000000000000000000000000000000000000000000008152f35b8284346104845781600319360112610484576020906001549051908152f35b828434610484578160031936011261048457517f00000000000000000000000000000000000000000000000000000000000000006001600160a01b03168152602090f35b82843461048457816003193601126104845760209051620186a08152f35b8284346104845781600319360112610484576020906002549051908152f35b8390346104845781600319360112610484576020918152f35b90601f8019910116810190811067ffffffffffffffff8211176105c657604052565b634e487b7160e01b600052604160045260246000fd5b51906001600160a01b03821682036105f057565b600080fd5b519060ff821682036105f05756fea2646970667358221220493d23920e3606159179d18fb72fd63e7219aac7a9981622a74d1e9581a6565f64736f6c63430008110033",
    "linkReferences": {}
  },
  "methodIdentifiers": {
    "HUNDRED_PC()": "20fdf070",
    "burnFeeRate()": "509bf42a",
    "collateralRate()": "58a6be1c",
    "liquidateVault(uint256)": "90cf0bba",
    "mintFeeRate()": "18819a31",
    "protocol()": "8ce74426",
    "tokenManager()": "2a709b14",
    "totalSupply()": "18160ddd"
  },
  "id": 22
}