{
  "abi": [
    {
      "inputs": [
        {
          "internalType": "uint256",
          "name": "_tokenId",
          "type": "uint256"
        }
      ],
      "name": "generateDefs",
      "outputs": [
        {
          "internalType": "string",
          "name": "",
          "type": "string"
        }
      ],
      "stateMutability": "pure",
      "type": "function"
    }
  ],
  "bytecode": {
    "object": "0x6080806040523461001657610db1908161001c8239f35b600080fdfe6080604081815260048036101561001557600080fd5b600092833560e01c6364c59abf1461002c57600080fd5b34610acb5760209081600319360112610ac757848484359261004d81610af2565b82815282858201520152835194610320860186811067ffffffffffffffff821117610ab45785526608d1918d8e508d60ca1b865266119ca11818232360c91b838701819052661198182323232360c91b878701819052661198181818232360c91b6060890152662333333333333360c81b6080890152660234646443730360cc1b60a089015260c088015260e0870152660234330433043360cc1b610100870152660233030303041360cc1b610120870152660234343464630360cc1b610140870152662346464646333360c81b610160870152660234646303030360cc1b610180870152660233830303038360cc1b6101a087015266119a2118181c1960c91b6101c087015266119b231818232360c91b6101e0870152662346463134393360c81b6102008701526608d19190504c5160ca1b610220870152660234646374530360cc1b610240870152660233030464630360cc1b610260870152662346463645433760c81b61028087015266119c211818232360c91b6102a0870152662346464130374160c81b6102c08701526608d1914d0c4d8d60ca1b6102e080880191909152660233030383038360cc1b6103008801529360198306906102128289610bc9565b5197601985046102228185610bf0565b60018101809111610aa157610253916102416019610248930685610bc9565b5195610bf0565b610271870490610bf0565b60028101809111610a8e5790601961026c920690610bc9565b519087519861027a8a610af2565b895285890192835287890191825261029185610c13565b986102a461029e87610c13565b96610c13565b9173__$494f05c0e716ee04a87bbde4e93142de0e$__91518a5195630db91bb560e41b91828852838801528787602481875af4968715610a68578897610a72575b5051948b5195828752838701528786602481875af4958615610a685790889392918497610a47575b509060249151948d51958694859384528301525af4948515610a3c578095610a17575b50508588519788968288019b651e3232b3399f60d11b8d5260268901661e39ba3cb6329f60c91b9052602d8901672e636c732d31207b60c01b905272666f6e742d66616d696c793a20417269616c3b60681b8060358b015271666f6e742d7765696768743a20626f6c643b60701b8060488c0152605a8b0172666f6e742d73697a653a2036302e383870783b60681b9052607d60f81b9384606d8d0152606e8c017f2e636c732d312c202e636c732d322c202e636c732d332c202e636c732d342c209052608e8c017f2e636c732d352c202e636c732d362c202e636c732d372c202e636c732d382c20905260ae8c01702e636c732d392c202e636c732d3130207b60781b905260bf8c016a66696c6c3a20236666663b60a81b905260ca8c017f746578742d736861646f773a2031707820317078202330303030303038303b0090528460e98d015260ea8c01682e636c732d3131207b60b81b905260f38c016a66696c6c3a206e6f6e653b60a81b905260fe8c016c7374726f6b653a20236666663b60981b905261010b8c01757374726f6b652d6d697465726c696d69743a2031303b60501b90526101218c01717374726f6b652d77696474683a203370783b60701b9052846101338d01526101348c01672e636c732d32207b60c01b905261013c8c0171666f6e742d73697a653a2034362e3570783b60701b90528461014e8d015261014f8c017f2e636c732d322c202e636c732d342c202e636c732d372c202e636c732d382c2090528b682e636c732d3130207b60b81b948561016f830152846101788301528661018b83015261018c8201672e636c732d34207b60c01b9052610194820172666f6e742d73697a653a2039352e393770783b60681b9052866101a78301526101a88201662e746f6b656e2d60c81b9052805190818a6101af8095019201916105e092610acf565b8d01908101682d636c732d3132207b60b81b90526101b881017f66696c6c3a2075726c28236c696e6561722d6772616469656e742d00000000009052815191826101d3998a840192019161063392610acf565b61293b60f01b9101968701526101d58601849052672e636c732d35207b60c01b6101d68701526101de86018290526101f186015261020385018390526f2e636c732d352c202e636c732d37207b60801b61020486015272666f6e742d73697a653a2035302e333970783b60681b6102148601526102278501839052672e636c732d36207b60c01b6102288601526102308501526f666f6e742d73697a653a20353570783b60801b6102438501526102538401829052672e636c732d38207b60c01b61025485015272666f6e742d73697a653a2034322e363970783b60681b61025c85015261026f8401829052672e636c732d39207b60c01b6102708501526c6f7061636974793a202e31373b60981b610278850152610285840182905261028684015272666f6e742d73697a653a2036332e373770783b60681b61028f8401526102a283018190527f2e7472616e73706172656e742d6261636b67726f756e642d636f6e7461696e656102a38401526272207b60e81b6102c38401527f66696c6c3a207267626128302c20302c20302c20302e33293b000000000000006102c68401526102df830152671e17b9ba3cb6329f60c11b908201527f3c6c696e6561724772616469656e742069643d276c696e6561722d67726164696102e882015263656e742d60e01b610308820152815161030c9290919061083b908390858401908b01610acf565b7f272078313d27333135272079313d2731393335272078323d27323536352720799101918201527f323d272d33313527206772616469656e745472616e73666f726d3d276d61747261032c8201527f697828312c20302c20302c20312c20302c20302927206772616469656e74556e61034c8201527434ba399e93bab9b2b929b830b1b2a7b72ab9b2939f60591b61036c8201527f3c73746f70206f66667365743d272e3338272073746f702d636f6c6f723d270061038182015282516103a093909190610910908390868401908a01610acf565b01916213979f60e91b928380928201526103a381017f3c73746f70206f66667365743d272e3737272073746f702d636f6c6f723d270090528251906103c293828986840192019161096092610acf565b01918201526103c581017f3c73746f70206f66667365743d2731272073746f702d636f6c6f723d2700000090528251906103e29382878684019201916109a592610acf565b01918201526103e58101701e17b634b732b0b923b930b234b2b73a1f60791b90526103f68101661e17b232b3399f60c91b9052036103dd810183526103fd016109ee9083610b24565b825193849282845251809284015281848401610a0992610acf565b601f01601f19168101030190f35b610a349295503d8091833e610a2c8183610b24565b810190610b62565b923880610330565b8951903d90823e3d90fd5b602492919750610a60903d8087833e610a2c8183610b24565b96909161030d565b8c513d8a823e3d90fd5b610a879197503d808a833e610a2c8183610b24565b95386102e5565b634e487b7160e01b855260118352602485fd5b634e487b7160e01b865260118452602486fd5b634e487b7160e01b825260418552602482fd5b8480fd5b8380fd5b60005b838110610ae25750506000910152565b8181015183820152602001610ad2565b6060810190811067ffffffffffffffff821117610b0e57604052565b634e487b7160e01b600052604160045260246000fd5b90601f8019910116810190811067ffffffffffffffff821117610b0e57604052565b67ffffffffffffffff8111610b0e57601f01601f191660200190565b602081830312610bc45780519067ffffffffffffffff8211610bc4570181601f82011215610bc4578051610b9581610b46565b92610ba36040519485610b24565b81845260208284010111610bc457610bc19160208085019101610acf565b90565b600080fd5b906019811015610bda5760051b0190565b634e487b7160e01b600052603260045260246000fd5b91908201809211610bfd57565b634e487b7160e01b600052601160045260246000fd5b806000917a184f03e93ff9f4daa797ed6e38ed64bf6a1f01000000000000000080821015610d6d575b506d04ee2d6d415b85acef810000000080831015610d5e575b50662386f26fc1000080831015610d4f575b506305f5e10080831015610d40575b5061271080831015610d31575b506064821015610d21575b600a80921015610d17575b60019081602181860195610cac87610b46565b96610cba6040519889610b24565b808852610cc9601f1991610b46565b01366020890137860101905b610ce1575b5050505090565b600019019083906f181899199a1a9b1b9c1cb0b131b232b360811b8282061a835304918215610d1257919082610cd5565b610cda565b9160010191610c99565b9190606460029104910191610c8e565b60049193920491019138610c83565b60089193920491019138610c76565b60109193920491019138610c67565b60209193920491019138610c55565b604093508104915038610c3c56fea264697066735822122037d49d1ecc422d2529e0698e0abdf0f08d8f1aa23938c8d593be8daaa1bf40ee64736f6c63430008110033",
    "linkReferences": {
      "contracts/utils/nfts/NFTUtils.sol": {
        "NFTUtils": [
          {
            "start": 707,
            "length": 20
          }
        ]
      }
    }
  },
  "methodIdentifiers": {
    "generateDefs(uint256)": "64c59abf"
  },
  "id": 28
}