{
  "abi": [
    {
      "anonymous": false,
      "inputs": [
        {
          "indexed": true,
          "internalType": "address",
          "name": "owner",
          "type": "address"
        },
        {
          "indexed": true,
          "internalType": "address",
          "name": "approved",
          "type": "address"
        },
        {
          "indexed": true,
          "internalType": "uint256",
          "name": "tokenId",
          "type": "uint256"
        }
      ],
      "name": "Approval",
      "type": "event"
    },
    {
      "anonymous": false,
      "inputs": [
        {
          "indexed": true,
          "internalType": "address",
          "name": "owner",
          "type": "address"
        },
        {
          "indexed": true,
          "internalType": "address",
          "name": "operator",
          "type": "address"
        },
        {
          "indexed": false,
          "internalType": "bool",
          "name": "approved",
          "type": "bool"
        }
      ],
      "name": "ApprovalForAll",
      "type": "event"
    },
    {
      "anonymous": false,
      "inputs": [
        {
          "indexed": false,
          "internalType": "uint8",
          "name": "version",
          "type": "uint8"
        }
      ],
      "name": "Initialized",
      "type": "event"
    },
    {
      "anonymous": false,
      "inputs": [
        {
          "indexed": true,
          "internalType": "address",
          "name": "previousOwner",
          "type": "address"
        },
        {
          "indexed": true,
          "internalType": "address",
          "name": "newOwner",
          "type": "address"
        }
      ],
      "name": "OwnershipTransferred",
      "type": "event"
    },
    {
      "anonymous": false,
      "inputs": [
        {
          "indexed": true,
          "internalType": "address",
          "name": "from",
          "type": "address"
        },
        {
          "indexed": true,
          "internalType": "address",
          "name": "to",
          "type": "address"
        },
        {
          "indexed": true,
          "internalType": "uint256",
          "name": "tokenId",
          "type": "uint256"
        }
      ],
      "name": "Transfer",
      "type": "event"
    },
    {
      "anonymous": false,
      "inputs": [
        {
          "indexed": true,
          "internalType": "address",
          "name": "vaultAddress",
          "type": "address"
        },
        {
          "indexed": true,
          "internalType": "address",
          "name": "owner",
          "type": "address"
        },
        {
          "indexed": false,
          "internalType": "address",
          "name": "vaultType",
          "type": "address"
        },
        {
          "indexed": false,
          "internalType": "uint256",
          "name": "tokenId",
          "type": "uint256"
        }
      ],
      "name": "VaultDeployed",
      "type": "event"
    },
    {
      "anonymous": false,
      "inputs": [
        {
          "indexed": true,
          "internalType": "address",
          "name": "vaultAddress",
          "type": "address"
        }
      ],
      "name": "VaultLiquidated",
      "type": "event"
    },
    {
      "anonymous": false,
      "inputs": [
        {
          "indexed": true,
          "internalType": "uint256",
          "name": "tokenId",
          "type": "uint256"
        },
        {
          "indexed": false,
          "internalType": "address",
          "name": "from",
          "type": "address"
        },
        {
          "indexed": false,
          "internalType": "address",
          "name": "to",
          "type": "address"
        }
      ],
      "name": "VaultTransferred",
      "type": "event"
    },
    {
      "inputs": [],
      "name": "HUNDRED_PC",
      "outputs": [
        {
          "internalType": "uint256",
          "name": "",
          "type": "uint256"
        }
      ],
      "stateMutability": "view",
      "type": "function"
    },
    {
      "inputs": [
        {
          "internalType": "address",
          "name": "to",
          "type": "address"
        },
        {
          "internalType": "uint256",
          "name": "tokenId",
          "type": "uint256"
        }
      ],
      "name": "approve",
      "outputs": [],
      "stateMutability": "nonpayable",
      "type": "function"
    },
    {
      "inputs": [
        {
          "internalType": "address",
          "name": "owner",
          "type": "address"
        }
      ],
      "name": "balanceOf",
      "outputs": [
        {
          "internalType": "uint256",
          "name": "",
          "type": "uint256"
        }
      ],
      "stateMutability": "view",
      "type": "function"
    },
    {
      "inputs": [],
      "name": "burnFeeRate",
      "outputs": [
        {
          "internalType": "uint256",
          "name": "",
          "type": "uint256"
        }
      ],
      "stateMutability": "view",
      "type": "function"
    },
    {
      "inputs": [],
      "name": "collateralRate",
      "outputs": [
        {
          "internalType": "uint256",
          "name": "",
          "type": "uint256"
        }
      ],
      "stateMutability": "view",
      "type": "function"
    },
    {
      "inputs": [],
      "name": "euros",
      "outputs": [
        {
          "internalType": "address",
          "name": "",
          "type": "address"
        }
      ],
      "stateMutability": "view",
      "type": "function"
    },
    {
      "inputs": [
        {
          "internalType": "uint256",
          "name": "tokenId",
          "type": "uint256"
        }
      ],
      "name": "getApproved",
      "outputs": [
        {
          "internalType": "address",
          "name": "",
          "type": "address"
        }
      ],
      "stateMutability": "view",
      "type": "function"
    },
    {
      "inputs": [
        {
          "internalType": "uint256",
          "name": "_collateralRate",
          "type": "uint256"
        },
        {
          "internalType": "uint256",
          "name": "_feeRate",
          "type": "uint256"
        },
        {
          "internalType": "address",
          "name": "_euros",
          "type": "address"
        },
        {
          "internalType": "address",
          "name": "_protocol",
          "type": "address"
        },
        {
          "internalType": "address",
          "name": "_liquidator",
          "type": "address"
        },
        {
          "internalType": "address",
          "name": "_tokenManager",
          "type": "address"
        },
        {
          "internalType": "address",
          "name": "_smartVaultDeployer",
          "type": "address"
        },
        {
          "internalType": "address",
          "name": "_smartVaultIndex",
          "type": "address"
        },
        {
          "internalType": "address",
          "name": "_nftMetadataGenerator",
          "type": "address"
        }
      ],
      "name": "initialize",
      "outputs": [],
      "stateMutability": "nonpayable",
      "type": "function"
    },
    {
      "inputs": [
        {
          "internalType": "address",
          "name": "owner",
          "type": "address"
        },
        {
          "internalType": "address",
          "name": "operator",
          "type": "address"
        }
      ],
      "name": "isApprovedForAll",
      "outputs": [
        {
          "internalType": "bool",
          "name": "",
          "type": "bool"
        }
      ],
      "stateMutability": "view",
      "type": "function"
    },
    {
      "inputs": [
        {
          "internalType": "uint256",
          "name": "_tokenId",
          "type": "uint256"
        }
      ],
      "name": "liquidateVault",
      "outputs": [],
      "stateMutability": "nonpayable",
      "type": "function"
    },
    {
      "inputs": [],
      "name": "liquidateVaults",
      "outputs": [],
      "stateMutability": "nonpayable",
      "type": "function"
    },
    {
      "inputs": [],
      "name": "liquidator",
      "outputs": [
        {
          "internalType": "address",
          "name": "",
          "type": "address"
        }
      ],
      "stateMutability": "view",
      "type": "function"
    },
    {
      "inputs": [],
      "name": "mint",
      "outputs": [
        {
          "internalType": "address",
          "name": "vault",
          "type": "address"
        },
        {
          "internalType": "uint256",
          "name": "tokenId",
          "type": "uint256"
        }
      ],
      "stateMutability": "nonpayable",
      "type": "function"
    },
    {
      "inputs": [],
      "name": "mintFeeRate",
      "outputs": [
        {
          "internalType": "uint256",
          "name": "",
          "type": "uint256"
        }
      ],
      "stateMutability": "view",
      "type": "function"
    },
    {
      "inputs": [],
      "name": "name",
      "outputs": [
        {
          "internalType": "string",
          "name": "",
          "type": "string"
        }
      ],
      "stateMutability": "view",
      "type": "function"
    },
    {
      "inputs": [],
      "name": "nftMetadataGenerator",
      "outputs": [
        {
          "internalType": "address",
          "name": "",
          "type": "address"
        }
      ],
      "stateMutability": "view",
      "type": "function"
    },
    {
      "inputs": [],
      "name": "owner",
      "outputs": [
        {
          "internalType": "address",
          "name": "",
          "type": "address"
        }
      ],
      "stateMutability": "view",
      "type": "function"
    },
    {
      "inputs": [
        {
          "internalType": "uint256",
          "name": "tokenId",
          "type": "uint256"
        }
      ],
      "name": "ownerOf",
      "outputs": [
        {
          "internalType": "address",
          "name": "",
          "type": "address"
        }
      ],
      "stateMutability": "view",
      "type": "function"
    },
    {
      "inputs": [],
      "name": "protocol",
      "outputs": [
        {
          "internalType": "address",
          "name": "",
          "type": "address"
        }
      ],
      "stateMutability": "view",
      "type": "function"
    },
    {
      "inputs": [],
      "name": "renounceOwnership",
      "outputs": [],
      "stateMutability": "nonpayable",
      "type": "function"
    },
    {
      "inputs": [
        {
          "internalType": "address",
          "name": "from",
          "type": "address"
        },
        {
          "internalType": "address",
          "name": "to",
          "type": "address"
        },
        {
          "internalType": "uint256",
          "name": "tokenId",
          "type": "uint256"
        }
      ],
      "name": "safeTransferFrom",
      "outputs": [],
      "stateMutability": "nonpayable",
      "type": "function"
    },
    {
      "inputs": [
        {
          "internalType": "address",
          "name": "from",
          "type": "address"
        },
        {
          "internalType": "address",
          "name": "to",
          "type": "address"
        },
        {
          "internalType": "uint256",
          "name": "tokenId",
          "type": "uint256"
        },
        {
          "internalType": "bytes",
          "name": "data",
          "type": "bytes"
        }
      ],
      "name": "safeTransferFrom",
      "outputs": [],
      "stateMutability": "nonpayable",
      "type": "function"
    },
    {
      "inputs": [
        {
          "internalType": "address",
          "name": "operator",
          "type": "address"
        },
        {
          "internalType": "bool",
          "name": "approved",
          "type": "bool"
        }
      ],
      "name": "setApprovalForAll",
      "outputs": [],
      "stateMutability": "nonpayable",
      "type": "function"
    },
    {
      "inputs": [
        {
          "internalType": "uint256",
          "name": "_rate",
          "type": "uint256"
        }
      ],
      "name": "setBurnFeeRate",
      "outputs": [],
      "stateMutability": "nonpayable",
      "type": "function"
    },
    {
      "inputs": [
        {
          "internalType": "uint256",
          "name": "_rate",
          "type": "uint256"
        }
      ],
      "name": "setMintFeeRate",
      "outputs": [],
      "stateMutability": "nonpayable",
      "type": "function"
    },
    {
      "inputs": [],
      "name": "smartVaultDeployer",
      "outputs": [
        {
          "internalType": "address",
          "name": "",
          "type": "address"
        }
      ],
      "stateMutability": "view",
      "type": "function"
    },
    {
      "inputs": [
        {
          "internalType": "bytes4",
          "name": "interfaceId",
          "type": "bytes4"
        }
      ],
      "name": "supportsInterface",
      "outputs": [
        {
          "internalType": "bool",
          "name": "",
          "type": "bool"
        }
      ],
      "stateMutability": "view",
      "type": "function"
    },
    {
      "inputs": [],
      "name": "symbol",
      "outputs": [
        {
          "internalType": "string",
          "name": "",
          "type": "string"
        }
      ],
      "stateMutability": "view",
      "type": "function"
    },
    {
      "inputs": [],
      "name": "tokenManager",
      "outputs": [
        {
          "internalType": "address",
          "name": "",
          "type": "address"
        }
      ],
      "stateMutability": "view",
      "type": "function"
    },
    {
      "inputs": [
        {
          "internalType": "uint256",
          "name": "_tokenId",
          "type": "uint256"
        }
      ],
      "name": "tokenURI",
      "outputs": [
        {
          "internalType": "string",
          "name": "",
          "type": "string"
        }
      ],
      "stateMutability": "view",
      "type": "function"
    },
    {
      "inputs": [],
      "name": "totalSupply",
      "outputs": [
        {
          "internalType": "uint256",
          "name": "",
          "type": "uint256"
        }
      ],
      "stateMutability": "view",
      "type": "function"
    },
    {
      "inputs": [
        {
          "internalType": "address",
          "name": "from",
          "type": "address"
        },
        {
          "internalType": "address",
          "name": "to",
          "type": "address"
        },
        {
          "internalType": "uint256",
          "name": "tokenId",
          "type": "uint256"
        }
      ],
      "name": "transferFrom",
      "outputs": [],
      "stateMutability": "nonpayable",
      "type": "function"
    },
    {
      "inputs": [
        {
          "internalType": "address",
          "name": "newOwner",
          "type": "address"
        }
      ],
      "name": "transferOwnership",
      "outputs": [],
      "stateMutability": "nonpayable",
      "type": "function"
    },
    {
      "inputs": [],
      "name": "vaults",
      "outputs": [
        {
          "components": [
            {
              "internalType": "uint256",
              "name": "tokenId",
              "type": "uint256"
            },
            {
              "internalType": "uint256",
              "name": "collateralRate",
              "type": "uint256"
            },
            {
              "internalType": "uint256",
              "name": "mintFeeRate",
              "type": "uint256"
            },
            {
              "internalType": "uint256",
              "name": "burnFeeRate",
              "type": "uint256"
            },
            {
              "components": [
                {
                  "internalType": "address",
                  "name": "vaultAddress",
                  "type": "address"
                },
                {
                  "internalType": "uint256",
                  "name": "minted",
                  "type": "uint256"
                },
                {
                  "internalType": "uint256",
                  "name": "maxMintable",
                  "type": "uint256"
                },
                {
                  "internalType": "uint256",
                  "name": "totalCollateralValue",
                  "type": "uint256"
                },
                {
                  "components": [
                    {
                      "components": [
                        {
                          "internalType": "bytes32",
                          "name": "symbol",
                          "type": "bytes32"
                        },
                        {
                          "internalType": "address",
                          "name": "addr",
                          "type": "address"
                        },
                        {
                          "internalType": "uint8",
                          "name": "dec",
                          "type": "uint8"
                        },
                        {
                          "internalType": "address",
                          "name": "clAddr",
                          "type": "address"
                        },
                        {
                          "internalType": "uint8",
                          "name": "clDec",
                          "type": "uint8"
                        }
                      ],
                      "internalType": "struct ITokenManager.Token",
                      "name": "token",
                      "type": "tuple"
                    },
                    {
                      "internalType": "uint256",
                      "name": "amount",
                      "type": "uint256"
                    },
                    {
                      "internalType": "uint256",
                      "name": "collateralValue",
                      "type": "uint256"
                    }
                  ],
                  "internalType": "struct ISmartVault.Asset[]",
                  "name": "collateral",
                  "type": "tuple[]"
                },
                {
                  "internalType": "bool",
                  "name": "liquidated",
                  "type": "bool"
                },
                {
                  "internalType": "uint8",
                  "name": "version",
                  "type": "uint8"
                },
                {
                  "internalType": "bytes32",
                  "name": "vaultType",
                  "type": "bytes32"
                }
              ],
              "internalType": "struct ISmartVault.Status",
              "name": "status",
              "type": "tuple"
            }
          ],
          "internalType": "struct SmartVaultManager.SmartVaultData[]",
          "name": "",
          "type": "tuple[]"
        }
      ],
      "stateMutability": "view",
      "type": "function"
    }
  ],
  "bytecode": {
    "object": "0x6080806040523461001657612a6b908161001c8239f35b600080fdfe608080604052600436101561001357600080fd5b600090813560e01c90816301ffc9a714611d375750806306fdde0314611ca3578063081812fc14611c84578063095ea7b314611b0f5780631249c58b1461168f57806318160ddd1461167157806318819a311461165357806320fdf0701461163557806321fbbf2f1461160c57806323b872dd146115e75780632a709b14146115be5780633143ab571461159b5780634046ebae1461157257806342842e0e1461153f578063509bf42a1461152157806358a6be1c146115035780635dfd8b53146114e05780636352211e146114af57806370a082311461141957806370bc680c146113f0578063715018a6146113925780638220ef5b146110555780638ce4ff1614610aef5780638ce7442614610ac65780638da5cb5b14610a9d57806390cf0bba14610a8857806395d89b41146109b5578063a22cb465146108e3578063b88d4fde14610833578063c44cf63a1461080a578063c87b56dd1461065c578063d1c0f2d21461027e578063e985e9c51461022a5763f2fde38b1461019757600080fd5b34610227576020366003190112610227576101b0611dec565b6101b861228e565b6001600160a01b038116156101d3576101d0906122e6565b80f35b60405162461bcd60e51b815260206004820152602660248201527f4f776e61626c653a206e6577206f776e657220697320746865207a65726f206160448201526564647265737360d01b6064820152608490fd5b80fd5b503461022757604036600319011261022757610244611dec565b604061024e611e02565b9260018060a01b038093168152606a602052209116600052602052602060ff604060002054166040519015158152f35b503461022757806003193601126102275760ca546001600160a01b03908116330361061e57816001809281935b6102fa575b50509050156102bc5780f35b60405162461bcd60e51b81526020600482015260166024820152756e6f2d6c6971756964617461626c652d7661756c747360501b6044820152606490fd5b60d0548411610619578060cf5416604051809163735e935160e11b825286600483015281602460209485935afa801561060e57839188916105e1575b5016906040516311d0a62560e21b81528181600481865afa9081156105d657889161059d575b50610376575b505061036f829394611fe4565b93926102ab565b928094509490803b1561058e576040516328a0702560e01b81528790818160048183875af180156105925761057a575b5060cb94848654166040519663d539139360e01b88528288600481855afa97881561051f578498610547575b50813b156105435760405163d547741f60e01b80825260048201999099526001600160a01b03861660248201529184908390604490829084905af1801561051f578792859161052a575b505054169560405163282c51f360e01b815282816004818b5afa92831561051f5784936104e7575b5050863b156104e35760405190815260048101919091526001600160a01b03831660248201529481908690604490829084905af19485156104d65786956104b7575b50907f1a859cd6d744d14a7aa31ec6d24a7aa146272e8b7ceaca90635e47e01978af928261036f9493a29493610362565b6104c49192939550611f2d565b6104d2579183928638610486565b8580fd5b50604051903d90823e3d90fd5b8280fd5b819450809293503d8311610518575b6105008183611f91565b8101031261051357889151903880610444565b600080fd5b503d6104f6565b6040513d86823e3d90fd5b61053691929350611f2d565b6104e3578590833861041c565b8380fd5b83809299508195503d8311610573575b6105618183611f91565b810103126105135789925196386103d2565b503d610557565b61058390611f2d565b61058e5786386103a6565b8680fd5b6040513d84823e3d90fd5b90508181813d83116105cf575b6105b48183611f91565b810103126105cb576105c590612074565b3861035c565b8780fd5b503d6105aa565b6040513d8a823e3d90fd5b6106019150833d8511610607575b6105f98183611f91565b810190612033565b38610336565b503d6105ef565b6040513d89823e3d90fd5b6102b0565b60405162461bcd60e51b815260206004820152601660248201527532b93916b4b73b30b634b216b634b8bab4b230ba37b960511b6044820152606490fd5b5034610227576020806003193601126107ae5760043582602460018060a01b0392848460cf54166040519384809263735e935160e11b82528560048301525afa9182156107e2578492849182916107ed575b50600460405180978193631006976960e11b8352165afa9182156107e2576107069484936107be575b5060d154169060405180958194829363256082c960e11b84526004840152604060248401526044830190611e4d565b03915afa9283156107b2578093610732575b505061072e604051928284938452830190611dc7565b0390f35b909192503d8082843e6107458184611f91565b82019183818403126107ae578051906001600160401b0382116104e3570182601f820112156107ae5780519161077a83611fb2565b936107886040519586611f91565b8385528584840101116102275750906107a691848085019101611da4565b903880610718565b5080fd5b604051903d90823e3d90fd5b6107db9193503d8086833e6107d38183611f91565b810190612081565b91386106d7565b6040513d85823e3d90fd5b6108049150873d8911610607576105f98183611f91565b386106ae565b503461022757806003193601126102275760d1546040516001600160a01b039091168152602090f35b50346102275760803660031901126102275761084d611dec565b610855611e02565b606435916044356001600160401b0384116108df57366023850112156108df5783600401359261088484611fb2565b926108926040519485611f91565b848452863660248789010111610227576020866108da9760246101d09a0183890137860101526108ca6108c584336124f2565b612419565b6108d5838383612606565b61296a565b6124ce565b8480fd5b5034610227576040366003190112610227576108fd611dec565b602435908115158092036104e3576001600160a01b03169033821461097057338352606a6020526040832082600052602052604060002060ff1981541660ff83161790556040519081527f17307eab39ab6107e8899845ad3d59bd9653f200f220920489ca2b5937696c3160203392a380f35b60405162461bcd60e51b815260206004820152601960248201527f4552433732313a20617070726f766520746f2063616c6c6572000000000000006044820152606490fd5b503461022757806003193601126102275760405190806066546109d78161232f565b80855291600191808316908115610a5e5750600114610a15575b61072e85610a0181870382611f91565b604051918291602083526020830190611dc7565b9250606683526000805160206129f68339815191525b828410610a46575050508101602001610a018261072e6109f1565b80546020858701810191909152909301928101610a2b565b86955061072e96935060209250610a0194915060ff191682840152151560051b82010192936109f1565b50346102275760203660031901126102275780f35b50346102275780600319360112610227576097546040516001600160a01b039091168152602090f35b503461022757806003193601126102275760c9546040516001600160a01b039091168152602090f35b503461022757610120366003190112610227576001600160a01b036044358181168103610513576064359180831683036105135760843581811681036105135760a43582811681036105135760c43583811681036105135760e43591848316830361051357610104359385851685036105135788549760ff8960081c16159889809a611048575b8015611031575b15610fd55760ff1981166001178b5589610fc4575b50604051610b9f81611f76565b602081527f546865205374616e6461726420536d617274205661756c74204d616e61676572602082015260405190610bd682611f76565b600a8252692a29ab20aaa62a26a0a760b11b6020830152610c0660ff8d5460081c16610c018161222e565b61222e565b8051906001600160401b038211610fb0578c8291610c2560655461232f565b601f8111610f3b575b50602091601f8411600114610ec65792610ebb575b50508160011b916000199060031b1c1916176065555b8051906001600160401b038211610ea757889695949392918c91610c7e60665461232f565b601f8111610e26575b50602090601f8311600114610d8b5793610cd660ff85858d9b9a98968c9a97968b99978a9892610d80575b50508160011b916000199060031b1c1916176066555b5460081c16610c018161222e565b610cdf336122e6565b60043560cc55816001600160601b0360a01b9d168d60cb54161760cb556024358060d25560d355168b60c954161760c955168960ca54161760ca55168760cd54161760cd55168560ce54161760ce55168360cf54161760cf55169060d154161760d155610d495780f35b61ff001981541681557f7f26b83ff96e1f2b6a682f133852f6798a09c465da95921460cefb3847402498602060405160018152a180f35b015190503880610cb2565b90606684526000805160206129f683398151915291845b601f1985168110610df7575060ff8b99989692956001868c9a97968b99610cd6968b99601f19811610610dde575b505050811b01606655610cc8565b015160001960f88460031b161c19169055388080610dd0565b9395969798999a5091819450600160209291839285015181550194019201918e93918c9a999897969593610da2565b91939495969798509160669052601f830160051c6000805160206129f68339815191520160208410610e92575b918a989796959493918e935b601f820160051c6000805160206129f6833981519152018110610e825750610c87565b9384558b99508e93600101610e5f565b506000805160206129f6833981519152610e53565b634e487b7160e01b8c52604160045260248cfd5b015190503880610c43565b606581529350600080516020612a1683398151915291905b601f1984168510610f20576001945083601f19811610610f07575b505050811b01606555610c59565b015160001960f88460031b161c19169055388080610ef9565b81810151835560209485019460019093019290910190610ede565b91606591935052601f830160051c600080516020612a168339815191520160208410610f9b575b918e9184935b601f820160051c600080516020612a16833981519152018110610f8b5750610c2e565b9283558493508f92600101610f68565b50600080516020612a16833981519152610f62565b634e487b7160e01b8d52604160045260248dfd5b61ffff1916610101178a5538610b92565b60405162461bcd60e51b815260206004820152602e60248201527f496e697469616c697a61626c653a20636f6e747261637420697320616c72656160448201526d191e481a5b9a5d1a585b1a5e995960921b6064820152608490fd5b50303b158015610b7d5750600160ff821614610b7d565b50600160ff821610610b76565b503461022757806003193601126102275760cf54604051636802581b60e11b8152336004820152906001600160a01b03168282602481845afa9182156107e2578392611300575b5081516110a881611fcd565b916110b66040519384611f91565b8183526110c282611fcd565b855b601f198201811061126257505060cc5460d25460d3549187805b86811061117657508660405190602092838301848452825180915260408401948060408360051b870101940192955b82871061111a5785850386f35b909192938280611166600193603f198a8203018652885180518252838101518483015260408101516040830152606080820151908301526080809101519160a080928201520190611e4d565b960192019601959291909261110d565b611180818a612009565b5160405163735e935160e11b81526004810182905291906020836024818b5afa92831561051f5760049385918291611243575b50604051631006976960e11b815294859182906001600160a01b03165afa801561051f57611224938591611229575b50604051916111f083611f40565b82528560208301528660408301528760608301526080820152611213828b612009565b5261121e818a612009565b50611fe4565b6110de565b61123d91503d8087833e6107d38183611f91565b386111e2565b61125c915060203d602011610607576105f98183611f91565b386111b3565b6040519061126f82611f40565b87825260209188838201528860408201526060928984830152604051806101008101106001600160401b03610100830111176112ea5760209461010082016040528b82528b838301528b60408301528b81830152608090818301528b60a08301528b60c08301528b60e08301528301528288010152016110c4565b634e487b7160e01b600052604160045260246000fd5b9091503d8084833e6113128183611f91565b81019060209081818403126108df578051906001600160401b0382116104d257019180601f840112156108df57825161134a81611fcd565b936113586040519586611f91565b818552838086019260051b82010192831161058e578301905b8282106113835750505050903861109c565b81518152908301908301611371565b50346102275780600319360112610227576113ab61228e565b609780546001600160a01b031981169091556000906001600160a01b03167f8be0079c531659141344cd1fd0a4f28419497f9722a3daafe3b4186f6b6457e08280a380f35b503461022757806003193601126102275760cb546040516001600160a01b039091168152602090f35b5034610227576020366003190112610227576001600160a01b0361143b611dec565b168015611458578160409160209352606883522054604051908152f35b60405162461bcd60e51b815260206004820152602960248201527f4552433732313a2061646472657373207a65726f206973206e6f7420612076616044820152683634b21037bbb732b960b91b6064820152608490fd5b50346102275760203660031901126102275760206114ce6004356123b5565b6040516001600160a01b039091168152f35b5034610227576020366003190112610227576114fa61228e565b60043560d35580f35b5034610227578060031936011261022757602060cc54604051908152f35b5034610227578060031936011261022757602060d354604051908152f35b5034610227576101d06108da61155436611e18565b906040519261156284611f5b565b8684526108ca6108c584336124f2565b503461022757806003193601126102275760ca546040516001600160a01b039091168152602090f35b5034610227576020366003190112610227576115b561228e565b60043560d25580f35b503461022757806003193601126102275760cd546040516001600160a01b039091168152602090f35b5034610227576101d06115f936611e18565b916116076108c584336124f2565b612606565b503461022757806003193601126102275760ce546040516001600160a01b039091168152602090f35b50346102275780600319360112610227576020604051620186a08152f35b5034610227578060031936011261022757602060d254604051908152f35b5034610227578060031936011261022757602060d054604051908152f35b503461022757806003193601126102275760d0549060018201809211611afb576040516116bb81611f5b565b8181523315611ab7576000838152606760205260409020546116e9906001600160a01b031615155b15612560565b60008381526067602052604090205461170c906001600160a01b031615156116e3565b3382526020906068825260408320600181540190558383526067825260408320336001600160601b0360a01b825416179055604051908433857fddf252ad1be2c89b69c2b068fc378daa952ba7f163c4a11628f55a4df523b3ef8180a460cf546001600160a01b0392908316803b156104d25781606481888094630db7e5b360e21b83528160048401523360248401528b60448401525af18015611a0557611a9e575b506108da6117ed91867fb94c2b508c30ec59449050da688941db7850240a61f359e7f4cf51f60a0037c2604080518981523389820152a2863361284e565b8360d05582828260ce541660648460cb5416604051978893849263d9181cd360e01b845230600485015233602485015260448401525af19384156104d6578194611a67575b508160cf54169282851693803b156104e35782809160446040518094819363b41276c160e01b83528c60048401528a60248401525af180156107e257908391611a53575b505060cb5460405163d539139360e01b8152919084168183600481845afa92831561051f578493611a24575b50803b1561054357604051632f2ff15d60e01b80825260048201949094526001600160a01b03881660248201529084908290604490829084905af1801561051f57908491611a10575b50508360cb54169160405163282c51f360e01b81528281600481875afa928315611a055785936119d5575b5050823b156105435760405190815260048101919091526001600160a01b03861660248201529082908290604490829084905af18015610592576119c1575b505060cb5416907fc2e5ddea5eacd045870205571e36f82db7a65a2ae56113d5732b0009ffb5b7e2604051806119a28733968360209093929193604081019460018060a01b031681520152565b0390a3604080516001600160a01b039290921682526020820192909252f35b6119cb8291611f2d565b6102275780611955565b9080929350813d83116119fe575b6119ed8183611f91565b810103126105135751903880611916565b503d6119e3565b6040513d87823e3d90fd5b611a1990611f2d565b6104e35782386118eb565b9092508181813d8311611a4c575b611a3c8183611f91565b81010312610513575191386118a2565b503d611a32565b611a5c90611f2d565b6107ae578138611876565b9093508281813d8311611a97575b611a7f8183611f91565b8101031261054357611a9090612052565b9238611832565b503d611a75565b6117ed9194611aaf6108da92611f2d565b9491506117af565b606460405162461bcd60e51b815260206004820152602060248201527f4552433732313a206d696e7420746f20746865207a65726f20616464726573736044820152fd5b634e487b7160e01b81526011600452602490fd5b503461022757604036600319011261022757611b29611dec565b602435906001600160a01b038080611b40856123b5565b16921691808314611c3557803314908115611c14575b5015611ba95782845260696020526040842080546001600160a01b03191683179055611b81836123b5565b167f8c5be1e5ebec7d5bd14f71427d1e84f3dd0314c0f7b2291e5b200ac8c7c3b9258480a480f35b60405162461bcd60e51b815260206004820152603d60248201527f4552433732313a20617070726f76652063616c6c6572206973206e6f7420746f60448201527f6b656e206f776e6572206f7220617070726f76656420666f7220616c6c0000006064820152608490fd5b90508452606a6020526040842033855260205260ff60408520541638611b56565b60405162461bcd60e51b815260206004820152602160248201527f4552433732313a20617070726f76616c20746f2063757272656e74206f776e656044820152603960f91b6064820152608490fd5b50346102275760203660031901126102275760206114ce6004356123db565b50346102275780600319360112610227576040519080606554611cc58161232f565b80855291600191808316908115610a5e5750600114611cee5761072e85610a0181870382611f91565b925060658352600080516020612a168339815191525b828410611d1f575050508101602001610a018261072e6109f1565b80546020858701810191909152909301928101611d04565b9050346107ae5760203660031901126107ae5760043563ffffffff60e01b81168091036104e357602092506380ac58cd60e01b8114908115611d93575b8115611d82575b5015158152f35b6301ffc9a760e01b14905038611d7b565b635b5e139f60e01b81149150611d74565b60005b838110611db75750506000910152565b8181015183820152602001611da7565b90602091611de081518092818552858086019101611da4565b601f01601f1916010190565b600435906001600160a01b038216820361051357565b602435906001600160a01b038216820361051357565b6060906003190112610513576001600160a01b0390600435828116810361051357916024359081168103610513579060443590565b906101009182820160018060a01b0390818351168452602080840151818601526040928385015184870152606093848601518588015260809485870151988689015288518095528361012089019901956000935b868510611ed557505050505050505060e08160a082930151151560a085015260ff60c08201511660c0850152015191015290565b8751805180518d528088015183168d8901528086015160ff9081168e8801528186015184168e87015290840151168c8401528087015160a08d015284015160c08c015260e0909a019996850196600190940193611ea1565b6001600160401b0381116112ea57604052565b60a081019081106001600160401b038211176112ea57604052565b602081019081106001600160401b038211176112ea57604052565b604081019081106001600160401b038211176112ea57604052565b90601f801991011681019081106001600160401b038211176112ea57604052565b6001600160401b0381116112ea57601f01601f191660200190565b6001600160401b0381116112ea5760051b60200190565b6000198114611ff35760010190565b634e487b7160e01b600052601160045260246000fd5b805182101561201d5760209160051b010190565b634e487b7160e01b600052603260045260246000fd5b9081602091031261051357516001600160a01b03811681036105135790565b51906001600160a01b038216820361051357565b519060ff8216820361051357565b5190811515820361051357565b919091602080828503126105135781516001600160401b03928382116105135701610100808287031261051357604093845194828601868110838211176112ea5781526120cd84612052565b865284840151858701528084015181870152606094858501518688015260809283860151818111610513578601908a601f83011215610513578a938251986121148a611fcd565b976121218351998a611f91565b8a8952858901948660e0809d02820101978811610513578601945b87861061217e575050505050505050848495969750015261215f60a08201612074565b60a085015261217060c08201612066565b60c085015201519082015290565b858f03908c82126105135784519084820191808310888411176122195760a08094126105135784810183811089821117612219578f948b946121fa8f938a8e6121e18e6121eb948152825187526121d68c8401612052565b898b01528201612066565b8689015201612052565b9360c094858701528d01612066565b8785015283528a0151848301528901518782015281520195019461213c565b60246000634e487b7160e01b81526041600452fd5b1561223557565b60405162461bcd60e51b815260206004820152602b60248201527f496e697469616c697a61626c653a20636f6e7472616374206973206e6f74206960448201526a6e697469616c697a696e6760a81b6064820152608490fd5b6097546001600160a01b031633036122a257565b606460405162461bcd60e51b815260206004820152602060248201527f4f776e61626c653a2063616c6c6572206973206e6f7420746865206f776e65726044820152fd5b609780546001600160a01b039283166001600160a01b0319821681179092559091167f8be0079c531659141344cd1fd0a4f28419497f9722a3daafe3b4186f6b6457e0600080a3565b90600182811c9216801561235f575b602083101461234957565b634e487b7160e01b600052602260045260246000fd5b91607f169161233e565b1561237057565b60405162461bcd60e51b815260206004820152601860248201527f4552433732313a20696e76616c696420746f6b656e20494400000000000000006044820152606490fd5b6000908152606760205260409020546001600160a01b03166123d8811515612369565b90565b6000818152606760205260409020546123fe906001600160a01b03161515612369565b6000908152606960205260409020546001600160a01b031690565b1561242057565b60405162461bcd60e51b815260206004820152602d60248201527f4552433732313a2063616c6c6572206973206e6f7420746f6b656e206f776e6560448201526c1c881bdc88185c1c1c9bdd9959609a1b6064820152608490fd5b60809060208152603260208201527f4552433732313a207472616e7366657220746f206e6f6e20455243373231526560408201527131b2b4bb32b91034b6b83632b6b2b73a32b960711b60608201520190565b156124d557565b60405162461bcd60e51b8152806124ee6004820161247b565b0390fd5b906001600160a01b038080612506846123b5565b16931691838314938415612539575b508315612523575b50505090565b61252f919293506123db565b161438808061251d565b909350600052606a60205260406000208260005260205260ff604060002054169238612515565b1561256757565b60405162461bcd60e51b815260206004820152601c60248201527f4552433732313a20746f6b656e20616c7265616479206d696e746564000000006044820152606490fd5b156125b357565b60405162461bcd60e51b815260206004820152602560248201527f4552433732313a207472616e736665722066726f6d20696e636f72726563742060448201526437bbb732b960d91b6064820152608490fd5b92919092612613826123b5565b6001600160a01b039182169061262c90831682146125ac565b816000951680156127fd5761264c8284612645876123b5565b16146125ac565b8386526020606981526040938488206001600160601b0360a01b90818154169055848952606883528589206000198154019055838952858920600181540190558689526067835283868a209182541617905584518684867fddf252ad1be2c89b69c2b068fc378daa952ba7f163c4a11628f55a4df523b3ef8c80a4888260cf5416803b156107ae57606483838193630db7e5b360e21b83528a60048401528960248401528c60448401525af180156127f3576127e0575b508361273b575b507fb94c2b508c30ec59449050da688941db7850240a61f359e7f4cf51f60a0037c2949596508351928352820152a2565b806024838a9360cf541688519283809263735e935160e11b82528c60048301525afa9081156127d65783916127b9575b5016803b156107ae57819060248751809481936313af403560e01b83528860048401525af180156127af571561270a576127a58891611f2d565b61058e578661270a565b85513d8a823e3d90fd5b6127d09150843d8611610607576105f98183611f91565b3861276b565b87513d85823e3d90fd5b6127ec90989198611f2d565b9638612703565b86513d8b823e3d90fd5b60405162461bcd60e51b8152602060048201526024808201527f4552433732313a207472616e7366657220746f20746865207a65726f206164646044820152637265737360e01b6064820152608490fd5b9192600092909190803b156129605761289c946040518092630a85bd0160e11b9485835233600484015287602484015260448301526080606483015281878160209a8b966084830190611dc7565b03926001600160a01b03165af1849181612920575b5061290f575050503d600014612907573d6128cb81611fb2565b906128d96040519283611f91565b81528091833d92013e5b805191826129045760405162461bcd60e51b8152806124ee6004820161247b565b01fd5b5060606128e3565b6001600160e01b0319161492509050565b9091508581813d8311612959575b6129388183611f91565b810103126108df57516001600160e01b0319811681036108df5790386128b1565b503d61292e565b5050915050600190565b9293600093909291803b156129ea579484916129c49660405180948193630a85bd0160e11b9788845233600485015260018060a01b0380921660248501526044840152608060648401528260209b8c976084830190611dc7565b0393165af1849181612920575061290f575050503d600014612907573d6128cb81611fb2565b50505091505060019056fe46501879b8ca8525e8c2fd519e2fbfcfa2ebea26501294aa02cbfcfb12e943548ff97419363ffd7000167f130ef7168fbea05faf9251824ca5043f113cc6a7c7a264697066735822122033513b0cb1b16b137ab3691a3bb42a891a6fc06b2dc04cf81dc5d9f0052ead7a64736f6c63430008110033",
    "linkReferences": {}
  },
  "methodIdentifiers": {
    "HUNDRED_PC()": "20fdf070",
    "approve(address,uint256)": "095ea7b3",
    "balanceOf(address)": "70a08231",
    "burnFeeRate()": "509bf42a",
    "collateralRate()": "58a6be1c",
    "euros()": "70bc680c",
    "getApproved(uint256)": "081812fc",
    "initialize(uint256,uint256,address,address,address,address,address,address,address)": "8ce4ff16",
    "isApprovedForAll(address,address)": "e985e9c5",
    "liquidateVault(uint256)": "90cf0bba",
    "liquidateVaults()": "d1c0f2d2",
    "liquidator()": "4046ebae",
    "mint()": "1249c58b",
    "mintFeeRate()": "18819a31",
    "name()": "06fdde03",
    "nftMetadataGenerator()": "c44cf63a",
    "owner()": "8da5cb5b",
    "ownerOf(uint256)": "6352211e",
    "protocol()": "8ce74426",
    "renounceOwnership()": "715018a6",
    "safeTransferFrom(address,address,uint256)": "42842e0e",
    "safeTransferFrom(address,address,uint256,bytes)": "b88d4fde",
    "setApprovalForAll(address,bool)": "a22cb465",
    "setBurnFeeRate(uint256)": "5dfd8b53",
    "setMintFeeRate(uint256)": "3143ab57",
    "smartVaultDeployer()": "21fbbf2f",
    "supportsInterface(bytes4)": "01ffc9a7",
    "symbol()": "95d89b41",
    "tokenManager()": "2a709b14",
    "tokenURI(uint256)": "c87b56dd",
    "totalSupply()": "18160ddd",
    "transferFrom(address,address,uint256)": "23b872dd",
    "transferOwnership(address)": "f2fde38b",
    "vaults()": "8220ef5b"
  },
  "id": 26
}