{
  "abi": [
    {
      "inputs": [
        {
          "internalType": "uint256",
          "name": "_amount",
          "type": "uint256"
        },
        {
          "internalType": "uint8",
          "name": "_inputDec",
          "type": "uint8"
        }
      ],
      "name": "toDecimalString",
      "outputs": [
        {
          "internalType": "string",
          "name": "",
          "type": "string"
        }
      ],
      "stateMutability": "pure",
      "type": "function"
    },
    {
      "inputs": [
        {
          "internalType": "bytes32",
          "name": "_data",
          "type": "bytes32"
        }
      ],
      "name": "toShortString",
      "outputs": [
        {
          "internalType": "string",
          "name": "",
          "type": "string"
        }
      ],
      "stateMutability": "pure",
      "type": "function"
    }
  ],
  "bytecode": {
    "object": "0x6080806040523461001a5761064d9081610020823930815050f35b600080fdfe604060808152600436101561001357600080fd5b600090813560e01c80638aded8d3146101365763db91bb501461003557600080fd5b6020806003193601126101325781519060043582840167ffffffffffffffff81118482101761011e5784528183528136818501378491855b60ff8116828110156100bf5783901a60f881901b6001600160f81b03191661009f575b5061009a90610247565b61006d565b846100b8916100b261009a94978961026e565b53610295565b9390610090565b50505050926100cd84610215565b91815b60ff81168681101561010d5761010891906101026001600160f81b03196100f7838761026e565b5116861a918761026e565b53610247565b6100d0565b85518061011a8782610195565b0390f35b634e487b7160e01b86526041600452602486fd5b8280fd5b508060031936011261016e576024359160ff8316830361016b575061016061011a926004356102b5565b905191829182610195565b80fd5b5080fd5b60005b8381106101855750506000910152565b8181015183820152602001610175565b604091602082526101b58151809281602086015260208686019101610172565b601f01601f1916010190565b90601f8019910116810190811067ffffffffffffffff8211176101e357604052565b634e487b7160e01b600052604160045260246000fd5b67ffffffffffffffff81116101e357601f01601f191660200190565b9061021f826101f9565b61022c60405191826101c1565b828152809261023d601f19916101f9565b0190602036910137565b60ff1660ff81146102585760010190565b634e487b7160e01b600052601160045260246000fd5b90815181101561027f570160200190565b634e487b7160e01b600052603260045260246000fd5b60001981146102585760010190565b60ff16604d811161025857600a0a90565b6102be826102a4565b801561048c576102cf9082046104af565b906102d9836102a4565b90811561048c570680156104865760ff6102f56102fc926104af565b9316610215565b9182518151816000925b6103dd57505050508160058082511161036c575b5050602161036991604051938161033b869351809260208087019101610172565b8201601760f91b602082015261035a8251809360208785019101610172565b010360018101845201826101c1565b90565b90919250604051916040830183811067ffffffffffffffff8211176101e3576040528183526020368185013760005b8281106103b257505050602161036991929161031a565b6103d8906001600160f81b03196103c9828561026e565b511660001a6100b2828761026e565b61039b565b6103e6906104a2565b908015610471576103f6906104a2565b916001600160f81b031990600360fc1b82610411868861026e565b51161480159061046a575b15610449575061042c838561026e565b511660001a61043b828761026e565b53806001915b929192610306565b91959050516000198101908111610258576104648691610215565b95610441565b508061041c565b9190806030610480828961026e565b53610441565b50905090565b634e487b7160e01b600052601260045260246000fd5b8015610258576000190190565b806000917a184f03e93ff9f4daa797ed6e38ed64bf6a1f01000000000000000080821015610609575b506d04ee2d6d415b85acef8100000000808310156105fa575b50662386f26fc10000808310156105eb575b506305f5e100808310156105dc575b50612710808310156105cd575b5060648210156105bd575b600a809210156105b3575b60019081602181860195610548876101f9565b9661055660405198896101c1565b808852610565601f19916101f9565b01366020890137860101905b61057d575b5050505090565b600019019083906f181899199a1a9b1b9c1cb0b131b232b360811b8282061a8353049182156105ae57919082610571565b610576565b9160010191610535565b919060646002910491019161052a565b6004919392049101913861051f565b60089193920491019138610512565b60109193920491019138610503565b602091939204910191386104f1565b6040935081049150386104d856fea264697066735822122030b939a54ff716d797f62a3c1762e41d77ada22d4b81a82dc7bd1a2288c5c5fb64736f6c63430008110033",
    "linkReferences": {}
  },
  "methodIdentifiers": {
    "toDecimalString(uint256,uint8)": "8aded8d3",
    "toShortString(bytes32)": "db91bb50"
  },
  "id": 30
}