{
  "abi": [
    {
      "inputs": [
        {
          "components": [
            {
              "internalType": "address",
              "name": "tokenIn",
              "type": "address"
            },
            {
              "internalType": "address",
              "name": "tokenOut",
              "type": "address"
            },
            {
              "internalType": "uint24",
              "name": "fee",
              "type": "uint24"
            },
            {
              "internalType": "address",
              "name": "recipient",
              "type": "address"
            },
            {
              "internalType": "uint256",
              "name": "deadline",
              "type": "uint256"
            },
            {
              "internalType": "uint256",
              "name": "amountIn",
              "type": "uint256"
            },
            {
              "internalType": "uint256",
              "name": "amountOutMinimum",
              "type": "uint256"
            },
            {
              "internalType": "uint160",
              "name": "sqrtPriceLimitX96",
              "type": "uint160"
            }
          ],
          "internalType": "struct ISwapRouter.ExactInputSingleParams",
          "name": "params",
          "type": "tuple"
        }
      ],
      "name": "exactInputSingle",
      "outputs": [
        {
          "internalType": "uint256",
          "name": "amountOut",
          "type": "uint256"
        }
      ],
      "stateMutability": "payable",
      "type": "function"
    },
    {
      "inputs": [],
      "name": "receivedSwap",
      "outputs": [
        {
          "components": [
            {
              "internalType": "address",
              "name": "tokenIn",
              "type": "address"
            },
            {
              "internalType": "address",
              "name": "tokenOut",
              "type": "address"
            },
            {
              "internalType": "uint24",
              "name": "fee",
              "type": "uint24"
            },
            {
              "internalType": "address",
              "name": "recipient",
              "type": "address"
            },
            {
              "internalType": "uint256",
              "name": "deadline",
              "type": "uint256"
            },
            {
              "internalType": "uint256",
              "name": "amountIn",
              "type": "uint256"
            },
            {
              "internalType": "uint256",
              "name": "amountOutMinimum",
              "type": "uint256"
            },
            {
              "internalType": "uint160",
              "name": "sqrtPriceLimitX96",
              "type": "uint160"
            },
            {
              "internalType": "uint256",
              "name": "txValue",
              "type": "uint256"
            }
          ],
          "internalType": "struct SwapRouterMock.MockSwapData",
          "name": "",
          "type": "tuple"
        }
      ],
      "stateMutability": "view",
      "type": "function"
    }
  ],
  "bytecode": {
    "object": "0x608080604052346100165761027d908161001c8239f35b600080fdfe608080604052600436101561001357600080fd5b600090813560e01c908163414bf3891461013e575063cb89cec81461003757600080fd5b3461013b578060031936011261013b5761012090610053610210565b8181528160208201528160408201528160608201528160808201528160a08201528160c08201528160e0820152816101008092015260018060a01b0380925416916001549080600254166003546004546005549184806006541694600754976100ba610210565b8b8152836020820181841681528c604084019362ffffff809660a01c168552606081019687526080810198895260a08101998a5260c081019a8b5260e081019b8c52019b8c526040519d8e52511660208d0152511660408b0152511660608901525160808801525160a08701525160c0860152511660e08401525190820152f35b80fd5b9050610100366003190112610204576004356001600160a01b038181169391849003610204576bffffffffffffffffffffffff60a01b9384835416178255602435818116809103610208576001549060443562ffffff8116810361020c5762ffffff60a01b9060a01b169168ffffffffffffffffff60b81b1617176001556064358181168091036102085784600254161760025560843560035560a43560045560c43560055560e435908116809103610204576020936006541617600655346007558152f35b5080fd5b8280fd5b8480fd5b60405190610120820182811067ffffffffffffffff82111761023157604052565b634e487b7160e01b600052604160045260246000fdfea26469706673582212207b1425f4ef6c9e7d4e65fede460e88477bf4a7040f1b5a3db2f672dcf491a75b64736f6c63430008110033",
    "linkReferences": {}
  },
  "methodIdentifiers": {
    "exactInputSingle((address,address,uint24,address,uint256,uint256,uint256,uint160))": "414bf389",
    "receivedSwap()": "cb89cec8"
  },
  "id": 26
}