{
  "abi": [
    {
      "inputs": [],
      "stateMutability": "nonpayable",
      "type": "constructor"
    },
    {
      "anonymous": false,
      "inputs": [
        {
          "indexed": true,
          "internalType": "address",
          "name": "owner",
          "type": "address"
        },
        {
          "indexed": true,
          "internalType": "address",
          "name": "spender",
          "type": "address"
        },
        {
          "indexed": false,
          "internalType": "uint256",
          "name": "value",
          "type": "uint256"
        }
      ],
      "name": "Approval",
      "type": "event"
    },
    {
      "anonymous": false,
      "inputs": [
        {
          "indexed": true,
          "internalType": "address",
          "name": "from",
          "type": "address"
        },
        {
          "indexed": true,
          "internalType": "address",
          "name": "to",
          "type": "address"
        },
        {
          "indexed": false,
          "internalType": "uint256",
          "name": "value",
          "type": "uint256"
        }
      ],
      "name": "Transfer",
      "type": "event"
    },
    {
      "inputs": [
        {
          "internalType": "address",
          "name": "owner",
          "type": "address"
        },
        {
          "internalType": "address",
          "name": "spender",
          "type": "address"
        }
      ],
      "name": "allowance",
      "outputs": [
        {
          "internalType": "uint256",
          "name": "",
          "type": "uint256"
        }
      ],
      "stateMutability": "view",
      "type": "function"
    },
    {
      "inputs": [
        {
          "internalType": "address",
          "name": "spender",
          "type": "address"
        },
        {
          "internalType": "uint256",
          "name": "amount",
          "type": "uint256"
        }
      ],
      "name": "approve",
      "outputs": [
        {
          "internalType": "bool",
          "name": "",
          "type": "bool"
        }
      ],
      "stateMutability": "nonpayable",
      "type": "function"
    },
    {
      "inputs": [
        {
          "internalType": "address",
          "name": "account",
          "type": "address"
        }
      ],
      "name": "balanceOf",
      "outputs": [
        {
          "internalType": "uint256",
          "name": "",
          "type": "uint256"
        }
      ],
      "stateMutability": "view",
      "type": "function"
    },
    {
      "inputs": [],
      "name": "decimals",
      "outputs": [
        {
          "internalType": "uint8",
          "name": "",
          "type": "uint8"
        }
      ],
      "stateMutability": "view",
      "type": "function"
    },
    {
      "inputs": [
        {
          "internalType": "address",
          "name": "spender",
          "type": "address"
        },
        {
          "internalType": "uint256",
          "name": "subtractedValue",
          "type": "uint256"
        }
      ],
      "name": "decreaseAllowance",
      "outputs": [
        {
          "internalType": "bool",
          "name": "",
          "type": "bool"
        }
      ],
      "stateMutability": "nonpayable",
      "type": "function"
    },
    {
      "inputs": [
        {
          "internalType": "address",
          "name": "spender",
          "type": "address"
        },
        {
          "internalType": "uint256",
          "name": "addedValue",
          "type": "uint256"
        }
      ],
      "name": "increaseAllowance",
      "outputs": [
        {
          "internalType": "bool",
          "name": "",
          "type": "bool"
        }
      ],
      "stateMutability": "nonpayable",
      "type": "function"
    },
    {
      "inputs": [],
      "name": "name",
      "outputs": [
        {
          "internalType": "string",
          "name": "",
          "type": "string"
        }
      ],
      "stateMutability": "view",
      "type": "function"
    },
    {
      "inputs": [],
      "name": "symbol",
      "outputs": [
        {
          "internalType": "string",
          "name": "",
          "type": "string"
        }
      ],
      "stateMutability": "view",
      "type": "function"
    },
    {
      "inputs": [],
      "name": "totalSupply",
      "outputs": [
        {
          "internalType": "uint256",
          "name": "",
          "type": "uint256"
        }
      ],
      "stateMutability": "view",
      "type": "function"
    },
    {
      "inputs": [
        {
          "internalType": "address",
          "name": "to",
          "type": "address"
        },
        {
          "internalType": "uint256",
          "name": "amount",
          "type": "uint256"
        }
      ],
      "name": "transfer",
      "outputs": [
        {
          "internalType": "bool",
          "name": "",
          "type": "bool"
        }
      ],
      "stateMutability": "nonpayable",
      "type": "function"
    },
    {
      "inputs": [
        {
          "internalType": "address",
          "name": "from",
          "type": "address"
        },
        {
          "internalType": "address",
          "name": "to",
          "type": "address"
        },
        {
          "internalType": "uint256",
          "name": "amount",
          "type": "uint256"
        }
      ],
      "name": "transferFrom",
      "outputs": [
        {
          "internalType": "bool",
          "name": "",
          "type": "bool"
        }
      ],
      "stateMutability": "nonpayable",
      "type": "function"
    },
    {
      "inputs": [
        {
          "internalType": "uint256",
          "name": "",
          "type": "uint256"
        }
      ],
      "name": "withdraw",
      "outputs": [],
      "stateMutability": "nonpayable",
      "type": "function"
    }
  ],
  "bytecode": {
    "object": "0x6080346200033d576040906001600160401b03908083018281118282101762000327578352600d81526020916c2bb930b83832b21022ba3432b960991b838301528351928484018481108382111762000327578552600493848152630ae8aa8960e31b8282015283519083821162000312576003928354926001968785811c9516801562000307575b83861014620002f2578190601f958681116200029c575b508390868311600114620002355760009262000229575b505060001982871b1c191690871b1784555b8151948511620002145786548681811c9116801562000209575b82821014620001f457838111620001a9575b50809285116001146200013b57509383949184926000956200012f575b50501b92600019911b1c19161790555b516108c99081620003438239f35b01519350388062000111565b92919084601f1981168860005285600020956000905b898383106200018e575050501062000173575b50505050811b01905562000121565b01519060f884600019921b161c191690553880808062000164565b85870151895590970196948501948893509081019062000151565b87600052816000208480880160051c820192848910620001ea575b0160051c019087905b828110620001dd575050620000f4565b60008155018790620001cd565b92508192620001c4565b602288634e487b7160e01b6000525260246000fd5b90607f1690620000e2565b604187634e487b7160e01b6000525260246000fd5b015190503880620000b6565b90899350601f1983169188600052856000209260005b878282106200028557505084116200026c575b505050811b018455620000c8565b015160001983891b60f8161c191690553880806200025e565b8385015186558d979095019493840193016200024b565b90915086600052836000208680850160051c820192868610620002e8575b918b91869594930160051c01915b828110620002d85750506200009f565b600081558594508b9101620002c8565b92508192620002ba565b602289634e487b7160e01b6000525260246000fd5b94607f169462000088565b604186634e487b7160e01b6000525260246000fd5b634e487b7160e01b600052604160045260246000fd5b600080fdfe608060408181526004918236101561001657600080fd5b600092833560e01c91826306fdde03146104cd57508163095ea7b3146104a357816318160ddd1461048457816323b872dd146103ba5781632e1a7d4d146103a5578163313ce56714610389578163395093511461032257816370a08231146102eb57816395d89b41146101cc578163a457c2d71461012457508063a9059cbb146100f45763dd62ed3e146100a957600080fd5b346100f057806003193601126100f057806020926100c56105f2565b6100cd61060d565b6001600160a01b0391821683526001865283832091168252845220549051908152f35b5080fd5b50346100f057806003193601126100f05760209061011d6101136105f2565b6024359033610623565b5160018152f35b905082346101c957826003193601126101c95761013f6105f2565b918360243592338152600160205281812060018060a01b03861682526020522054908282106101785760208561011d8585038733610791565b608490602086519162461bcd60e51b8352820152602560248201527f45524332303a2064656372656173656420616c6c6f77616e63652062656c6f77604482015264207a65726f60d81b6064820152fd5b80fd5b8383346100f057816003193601126100f057805190828454600181811c908083169283156102e1575b60209384841081146102ce578388529081156102b2575060011461025d575b505050829003601f01601f191682019267ffffffffffffffff84118385101761024a57508291826102469252826105a9565b0390f35b634e487b7160e01b815260418552602490fd5b8787529192508591837f8a35acfbc15ff81a39ae7d344fd709f28e8600b4aa8c65c6b64bfe7fe36bd19b5b83851061029e5750505050830101858080610214565b805488860183015293019284908201610288565b60ff1916878501525050151560051b8401019050858080610214565b634e487b7160e01b895260228a52602489fd5b91607f16916101f5565b5050346100f05760203660031901126100f05760209181906001600160a01b036103136105f2565b16815280845220549051908152f35b8284346101c957816003193601126101c95761033c6105f2565b338252600160209081528383206001600160a01b03831684529052828220546024358101929083106103765760208461011d858533610791565b634e487b7160e01b815260118552602490fd5b5050346100f057816003193601126100f0576020905160128152f35b83346101c95760203660031901126101c95780f35b839150346100f05760603660031901126100f0576103d66105f2565b6103de61060d565b91846044359460018060a01b038416815260016020528181203382526020522054906000198203610418575b60208661011d878787610623565b84821061044157509183916104366020969561011d95033383610791565b91939481935061040a565b606490602087519162461bcd60e51b8352820152601d60248201527f45524332303a20696e73756666696369656e7420616c6c6f77616e63650000006044820152fd5b5050346100f057816003193601126100f0576020906002549051908152f35b5050346100f057806003193601126100f05760209061011d6104c36105f2565b6024359033610791565b849084346105a557826003193601126105a55782600354600181811c9080831692831561059b575b60209384841081146102ce578388529081156102b2575060011461054557505050829003601f01601f191682019267ffffffffffffffff84118385101761024a57508291826102469252826105a9565b600387529192508591837fc2575a0e9e593c00f959f8c92f12db2869c3395a3b0502d05e2516446f71f85b5b8385106105875750505050830101858080610214565b805488860183015293019284908201610571565b91607f16916104f5565b8280fd5b6020808252825181830181905290939260005b8281106105de57505060409293506000838284010152601f8019910116010190565b8181018601518482016040015285016105bc565b600435906001600160a01b038216820361060857565b600080fd5b602435906001600160a01b038216820361060857565b6001600160a01b0390811691821561073e57169182156106ed5760008281528060205260408120549180831061069957604082827fddf252ad1be2c89b69c2b068fc378daa952ba7f163c4a11628f55a4df523b3ef958760209652828652038282205586815220818154019055604051908152a3565b60405162461bcd60e51b815260206004820152602660248201527f45524332303a207472616e7366657220616d6f756e7420657863656564732062604482015265616c616e636560d01b6064820152608490fd5b60405162461bcd60e51b815260206004820152602360248201527f45524332303a207472616e7366657220746f20746865207a65726f206164647260448201526265737360e81b6064820152608490fd5b60405162461bcd60e51b815260206004820152602560248201527f45524332303a207472616e736665722066726f6d20746865207a65726f206164604482015264647265737360d81b6064820152608490fd5b6001600160a01b0390811691821561084257169182156107f25760207f8c5be1e5ebec7d5bd14f71427d1e84f3dd0314c0f7b2291e5b200ac8c7c3b925918360005260018252604060002085600052825280604060002055604051908152a3565b60405162461bcd60e51b815260206004820152602260248201527f45524332303a20617070726f766520746f20746865207a65726f206164647265604482015261737360f01b6064820152608490fd5b60405162461bcd60e51b8152602060048201526024808201527f45524332303a20617070726f76652066726f6d20746865207a65726f206164646044820152637265737360e01b6064820152608490fdfea26469706673582212205458a5a8564364719ab8c52c0446f1f1d789ccc6e7e073b97bf852c0a029162e64736f6c63430008110033",
    "linkReferences": {}
  },
  "methodIdentifiers": {
    "allowance(address,address)": "dd62ed3e",
    "approve(address,uint256)": "095ea7b3",
    "balanceOf(address)": "70a08231",
    "decimals()": "313ce567",
    "decreaseAllowance(address,uint256)": "a457c2d7",
    "increaseAllowance(address,uint256)": "39509351",
    "name()": "06fdde03",
    "symbol()": "95d89b41",
    "totalSupply()": "18160ddd",
    "transfer(address,uint256)": "a9059cbb",
    "transferFrom(address,address,uint256)": "23b872dd",
    "withdraw(uint256)": "2e1a7d4d"
  },
  "id": 28
}