{
  "abi": [
    {
      "inputs": [
        {
          "internalType": "string",
          "name": "_desc",
          "type": "string"
        }
      ],
      "stateMutability": "nonpayable",
      "type": "constructor"
    },
    {
      "inputs": [
        {
          "internalType": "uint256",
          "name": "timestamp",
          "type": "uint256"
        },
        {
          "internalType": "int256",
          "name": "price",
          "type": "int256"
        }
      ],
      "name": "addPriceRound",
      "outputs": [],
      "stateMutability": "nonpayable",
      "type": "function"
    },
    {
      "inputs": [],
      "name": "decimals",
      "outputs": [
        {
          "internalType": "uint8",
          "name": "",
          "type": "uint8"
        }
      ],
      "stateMutability": "pure",
      "type": "function"
    },
    {
      "inputs": [],
      "name": "description",
      "outputs": [
        {
          "internalType": "string",
          "name": "",
          "type": "string"
        }
      ],
      "stateMutability": "view",
      "type": "function"
    },
    {
      "inputs": [
        {
          "internalType": "uint80",
          "name": "_roundId",
          "type": "uint80"
        }
      ],
      "name": "getRoundData",
      "outputs": [
        {
          "internalType": "uint80",
          "name": "roundId",
          "type": "uint80"
        },
        {
          "internalType": "int256",
          "name": "answer",
          "type": "int256"
        },
        {
          "internalType": "uint256",
          "name": "",
          "type": "uint256"
        },
        {
          "internalType": "uint256",
          "name": "updatedAt",
          "type": "uint256"
        },
        {
          "internalType": "uint80",
          "name": "",
          "type": "uint80"
        }
      ],
      "stateMutability": "view",
      "type": "function"
    },
    {
      "inputs": [],
      "name": "latestRoundData",
      "outputs": [
        {
          "internalType": "uint80",
          "name": "roundId",
          "type": "uint80"
        },
        {
          "internalType": "int256",
          "name": "answer",
          "type": "int256"
        },
        {
          "internalType": "uint256",
          "name": "",
          "type": "uint256"
        },
        {
          "internalType": "uint256",
          "name": "updatedAt",
          "type": "uint256"
        },
        {
          "internalType": "uint80",
          "name": "",
          "type": "uint80"
        }
      ],
      "stateMutability": "view",
      "type": "function"
    },
    {
      "inputs": [
        {
          "internalType": "int256",
          "name": "_price",
          "type": "int256"
        }
      ],
      "name": "setPrice",
      "outputs": [],
      "stateMutability": "nonpayable",
      "type": "function"
    },
    {
      "inputs": [],
      "name": "version",
      "outputs": [
        {
          "internalType": "uint256",
          "name": "",
          "type": "uint256"
        }
      ],
      "stateMutability": "view",
      "type": "function"
    }
  ],
  "bytecode": {
    "object": "0x6080604052346101f5576106cf80380380610019816101fa565b928339810190602080828403126101f55781516001600160401b03928382116101f5570192601f908082860112156101f55784518481116101cb57601f1995610067828501881686016101fa565b928284528583830101116101f557849060005b8381106101e15750506000918301015280519384116101cb57600054926001938481811c911680156101c1575b828210146101ab57838111610165575b50809285116001146101005750839450908392916000946100f5575b50501b916000199060031b1c1916176000555b6040516104af90816102208239f35b0151925038806100d3565b9294849081166000805284600020946000905b8883831061014b5750505010610132575b505050811b016000556100e6565b015160001960f88460031b161c19169055388080610124565b858701518855909601959485019487935090810190610113565b60008052816000208480880160051c8201928489106101a2575b0160051c019085905b8281106101965750506100b7565b60008155018590610188565b9250819261017f565b634e487b7160e01b600052602260045260246000fd5b90607f16906100a7565b634e487b7160e01b600052604160045260246000fd5b81810183015185820184015286920161007a565b600080fd5b6040519190601f01601f191682016001600160401b038111838210176101cb5760405256fe60806040908082526004908136101561001757600080fd5b600090813560e01c908163313ce5671461038b5750806354fd4d501461036f57806359d9d6961461033d5780637284e416146101dd5780639a6fc8f5146101a2578063f7a308061461010c5763feaf968c1461007257600080fd5b346101095780600319360112610109576001546000198101929083116100f6578369ffffffffffffffffffff84166100f260016100ae836103d8565b500154926100bb836103d8565b5054905193849384608091949360009369ffffffffffffffffffff60a0840197168352602083015283604083015260608201520152565b0390f35b634e487b7160e01b825260119052602490fd5b80fd5b50829034610109576020366003190112610109575b60018054801561015d576000190190610139826103d8565b61014b57818185809355015555610121565b634e487b7160e01b8452838652602484fd5b50509061383f1942019042821161018f579261018c9293519161017f836103a6565b8252356020820152610428565b80f35b634e487b7160e01b835260118452602483fd5b5090346101d95760203660031901126101d957359069ffffffffffffffffffff8216820361010957506100f260016100ae836103d8565b5080fd5b509134610339578260031936011261033957805183805460019581871c87831697881561032f575b6020938483108a1461031c57848798999a84895291826000146103005750506001146102ad575b5050601f801995869203011683019583871067ffffffffffffffff88111761029a575085929391838652818452845191828186015281955b8387106102825750508394508582601f949501015201168101030190f35b86810182015189880189015295810195889550610264565b634e487b7160e01b835260419052602482fd5b8480528492507f290decd9548b62a8d60345a988386fc84ba6bc95484008f6362f93160ef3e5635b8284106102ea5750505083018101388061022c565b80548885018601528796509284019281016102d5565b925093505060ff191682860152151560051b840101388061022c565b634e487b7160e01b865260228952602486fd5b90607f1690610205565b8280fd5b5091903461033957816003193601126103395761018c91519061035f826103a6565b3581526024356020820152610428565b5082346101d957816003193601126101d9576020905160018152f35b9050346101d957816003193601126101d95780600860209252f35b6040810190811067ffffffffffffffff8211176103c257604052565b634e487b7160e01b600052604160045260246000fd5b60015481101561041257600160005260011b7fb10e2d527612073b26eecdfd717e6a320cf44b4afac2b0732d9fcbe2b7fa0cf60190600090565b634e487b7160e01b600052603260045260246000fd5b600154680100000000000000008110156103c25780600161044c92016001556103d8565b919091610463576020816001925184550151910155565b634e487b7160e01b600052600060045260246000fdfea2646970667358221220d8ba3b0121505face69ee3b19e01dda92272dc8a7693ff5594cfbc0b9272d39d64736f6c63430008110033",
    "linkReferences": {}
  },
  "methodIdentifiers": {
    "addPriceRound(uint256,int256)": "59d9d696",
    "decimals()": "313ce567",
    "description()": "7284e416",
    "getRoundData(uint80)": "9a6fc8f5",
    "latestRoundData()": "feaf968c",
    "setPrice(int256)": "f7a30806",
    "version()": "54fd4d50"
  },
  "id": 18
}