{"abi":[{"type":"function","name":"addVaultAddress","inputs":[{"name":"_tokenId","type":"uint256","internalType":"uint256"},{"name":"_vault","type":"address","internalType":"address payable"}],"outputs":[],"stateMutability":"nonpayable"},{"type":"function","name":"getTokenIds","inputs":[{"name":"_user","type":"address","internalType":"address"}],"outputs":[{"name":"","type":"uint256[]","internalType":"uint256[]"}],"stateMutability":"view"},{"type":"function","name":"getVaultAddress","inputs":[{"name":"_tokenId","type":"uint256","internalType":"uint256"}],"outputs":[{"name":"","type":"address","internalType":"address payable"}],"stateMutability":"view"},{"type":"function","name":"manager","inputs":[],"outputs":[{"name":"","type":"address","internalType":"address"}],"stateMutability":"view"},{"type":"function","name":"owner","inputs":[],"outputs":[{"name":"","type":"address","internalType":"address"}],"stateMutability":"view"},{"type":"function","name":"renounceOwnership","inputs":[],"outputs":[],"stateMutability":"nonpayable"},{"type":"function","name":"setVaultManager","inputs":[{"name":"_manager","type":"address","internalType":"address"}],"outputs":[],"stateMutability":"nonpayable"},{"type":"function","name":"transferOwnership","inputs":[{"name":"newOwner","type":"address","internalType":"address"}],"outputs":[],"stateMutability":"nonpayable"},{"type":"function","name":"transferTokenId","inputs":[{"name":"_from","type":"address","internalType":"address"},{"name":"_to","type":"address","internalType":"address"},{"name":"_tokenId","type":"uint256","internalType":"uint256"}],"outputs":[],"stateMutability":"nonpayable"},{"type":"event","name":"OwnershipTransferred","inputs":[{"name":"previousOwner","type":"address","indexed":true,"internalType":"address"},{"name":"newOwner","type":"address","indexed":true,"internalType":"address"}],"anonymous":false}],"bytecode":{"object":"0x6080806040523461005b5760008054336001600160a01b0319821681178355916001600160a01b03909116907f8be0079c531659141344cd1fd0a4f28419497f9722a3daafe3b4186f6b6457e09080a361068790816100618239f35b600080fdfe6040608081526004908136101561001557600080fd5b600091823560e01c806336df96cc146103a5578063481c6a751461037c578063715018a6146103225780638da5cb5b146102fa578063b41276c1146102a0578063b543503e14610258578063d004b0361461017b578063e6bd26a2146101495763f2fde38b1461008457600080fd5b346101455760203660031901126101455761009d610531565b906100a661054c565b6001600160a01b039182169283156100f357505082546001600160a01b0319811683178455167f8be0079c531659141344cd1fd0a4f28419497f9722a3daafe3b4186f6b6457e08380a380f35b906020608492519162461bcd60e51b8352820152602660248201527f4f776e61626c653a206e6577206f776e657220697320746865207a65726f206160448201526564647265737360d01b6064820152fd5b8280fd5b50346101455760203660031901126101455735825260036020908152918190205490516001600160a01b039091168152f35b5091903461025457602080600319360112610145576001600160a01b036101a0610531565b1683526002815281832092825192838386549182815201908196845284842090845b868282106102405750505050849003601f01601f191684019567ffffffffffffffff87118588101761022d575085815282865292518583018190528594938501939290915b82811061021657505050500390f35b835185528695509381019392810192600101610207565b634e487b7160e01b835260419052602482fd5b8354855290930192600192830192016101c2565b5080fd5b833461029d57602036600319011261029d57610272610531565b61027a61054c565b60018060a01b03166bffffffffffffffffffffffff60a01b600154161760015580f35b80fd5b5090346101455780600319360112610145576024356001600160a01b0381811693918490036102f6576102d8906001541633146105a4565b3583526003602052822080546001600160a01b031916909117905580f35b8480fd5b505034610254578160031936011261025457905490516001600160a01b039091168152602090f35b833461029d578060031936011261029d5761033b61054c565b80546001600160a01b03198116825581906001600160a01b03167f8be0079c531659141344cd1fd0a4f28419497f9722a3daafe3b4186f6b6457e08280a380f35b50503461025457816003193601126102545760015490516001600160a01b039091168152602090f35b50919034610254576060366003190112610254576103c1610531565b6001600160a01b039190602480358481169081900361052d57604435946001936103ef8286541633146105a4565b16928387526002936020938585528689209987519a8b8782549182815201918c52878c20908c5b878a83831061051b5750505050508b9003601f01601f19168b0167ffffffffffffffff81118c8210176105095788528a5192808b52878752888b208054908c8155816104e6575b50508a5b84811061047e578b61047b8c8c8c8c8c86525283206105e3565b80f35b888d89838f8f908f91610491848761063d565b51036104c0575b50505050505060001981146104ae578501610461565b634e487b7160e01b8c5260118352838cfd5b6104da956104d39489835252209261063d565b51906105e3565b888d89838f8e90610498565b8c5285888d20918201915b8281106104fe575061045d565b8d81550186906104f1565b50634e487b7160e01b8a526041905288fd5b84548652909401939283019201610416565b8580fd5b600435906001600160a01b038216820361054757565b600080fd5b6000546001600160a01b0316330361056057565b606460405162461bcd60e51b815260206004820152602060248201527f4f776e61626c653a2063616c6c6572206973206e6f7420746865206f776e65726044820152fd5b156105ab57565b60405162461bcd60e51b815260206004820152601060248201526f195c9c8b5d5b985d5d1a1bdc9a5cd95960821b6044820152606490fd5b8054906801000000000000000082101561062757600182018082558210156106115760005260206000200155565b634e487b7160e01b600052603260045260246000fd5b634e487b7160e01b600052604160045260246000fd5b80518210156106115760209160051b01019056fea264697066735822122084bc79e9d0a6b1553f39b35422488b26557c02340aa1048131c56a9ffa00e3e164736f6c63430008110033","linkReferences":{}},"methodIdentifiers":{"addVaultAddress(uint256,address)":"b41276c1","getTokenIds(address)":"d004b036","getVaultAddress(uint256)":"e6bd26a2","manager()":"481c6a75","owner()":"8da5cb5b","renounceOwnership()":"715018a6","setVaultManager(address)":"b543503e","transferOwnership(address)":"f2fde38b","transferTokenId(address,address,uint256)":"36df96cc"},"id":85}